:04000000FFEF3DF0E1
:08000800046ED8CF05F0E0CF33
:1000100006F00001E9CF0CF0EACF07F0E1CF08F0DD
:10002000E2CF09F0D9CF0AF0DACF0BF0F3CF12F01C
:10003000F4CF13F0FACF14F0F5CF15F0F6CF16F099
:10004000F7CF17F000C00EF001C00FF002C010F0A3
:1000500003C011F0F0A830EF00F0F0B2E0EF00F0D4
:100060009DAA36EF00F09EBA0AEF01F00EC000F034
:100070000FC001F010C002F011C003F00CC0E9FF86
:1000800007C0EAFF078E08C0E1FF09C0E2FF0AC00F
:10009000D9FF0BC0DAFF12C0F3FF13C0F4FF14C086
:1000A000FAFF15C0F5FF16C0F6FF17C0F7FF0450A2
:1000B00006C0E0FF05C0D8FF1000F76ACA0FF66E51
:1000C000000EF7220900F5501200280C0106F76A0D
:1000D000DE0FF66E000EF7220900F5501200000048
:1000E00034013B0146014F011C02330259027902DF
:1000F000B601C601DD01F1011B003F007E00B0002A
:10010000F76A100FF66E010EF7220900F550120083
:100110005A4344454642333639413235383031341A
:100120003700F76A320FF66E010EF7220900F5501C
:10013000120030303030303030310000F76A4C0F70
:10014000F66E010EF7220900F55012003030303003
:10015000303031300000F76A660FF66E010EF7227C
:100160000900F5501200A901B001B701BE01C50197
:10017000CC01D301938481B4FED7080E006E020136
:100180004F6B008E0ED0009E0CD0D89081B4D880DA
:100190004F33008C06D0009C002EF7D74FC201F0E1
:1001A0000CD0A70E00BE2D0E016E012EFED7000052
:1001B00000BEE9D700BCEFD7E8D70001E3EF00F0BD
:1001C00081B425D0D7D701C04FF202010150600899
:1001D00006E24F517A0803E34F51DF0B01D04F5134
:1001E0000101A16FA1514C0804E1010E9F6FA1C153
:1001F0009DF1A151450806E0A151530803E0A1512A
:100200004E0804E1010EA06FA1C19DF10001F09222
:1002100036EF00F0036ADB51FF0FE96E000E03209A
:10022000EA6E9EAAFED7AECFEFFF036ADB51FF0F47
:10023000E96E000E0320EA6EEF50260804E1010E7D
:10024000DC6FDB6B02D0DC6BDB2B9E9A36EF00F0B1
:1002500002015251070B006E5231016E0132013220
:100260001F0E011601505425E96E000E5521EA6E4D
:10027000016A012A002A01D00136002EFDD753530E
:1002800003E00150EF1203D0011E0150EF160001F0
:10029000120051C252F2010E0201536F0F0E556F40
:1002A000890E546F0001D4DF51C252F20201536B28
:1002B0000F0E556F920E546F0001CADF120051C22B
:1002C00052F20201536B0F0E556F890E546F0001ED
:1002D000BFDF51C252F20201536B0F0E556F920EE7
:1002E000546F0001B5DF1200010186518525872575
:1002F0008825836F835102080DE383530BE0020EC0
:100300000201516F0001C5DF050E0201516F0001AE
:10031000D6DF0101835102080BE2020E0201516F88
:100320000001B7DF050E0201516F0001B2DF0101CC
:1003300083530BE1050E0201516F0001C0DF020E75
:100340000201516F0001BBDF0101E80EC36F020E15
:10035000C46F8BEF3FF00001120072C0EAFF71C062
:10036000E9FF02015CC2EFFFE92AD8B4EA2AEF6A8A
:100370000001712BD8B4722B1200EACF5BF2E9CFE7
:100380005AF202015439F009566F5627E20F576F9F
:10039000320F596F54510F0B572757275927E90F21
:1003A000586F5827582753390F0B58275927583754
:1003B0005937591F593753510F0B59275637070EC5
:1003C000556F0A0E58075927FDE357075827FDE3D5
:1003D00056075727FDE355075627FDE3020EEA6E41
:1003E000550EE96E070E5A155A9DE926590EE95C1D
:1003F000D8B45A8DEF50006E08E15ABD06D05AB9F4
:1004000015D05AB702D0200E03D05A875A99300E11
:100410000026EACF54F2E9CF53F200C05CF20001AB
:100420009CDF54C2EAFF53C2E9FF0201EE505AAD0D
:10043000DDD70001120052C256F251C255F256C227
:1004400003F0020155C2E9FF56C2EAFFEF5206E08F
:10045000552BD8B4562B0001F2D7020154C203F039
:1004600053C2E9FF54C2EAFFEF5213E053C2E9FF5F
:1004700054C2EAFFEFCF59F256C2EAFF55C2E9FF74
:1004800059C2EFFF552BD8B4562B532BD8B4542B4D
:10049000E5D755C2E9FF56C2EAFFEF6A51C201F043
:1004A00052C202F00001120002015851016A575D68
:1004B00003E257C200F00CD0006A080E596F57379C
:1004C00000365851005CD8B0006E0136592FF7D76E
:1004D00000011200015051C257F2640E0201586F20
:1004E0000001E2DF00C051F20150300E08E10201CC
:1004F00052A30FD052B70DD052B9200E04D0020132
:10050000529752995281012601C05CF2000125DF09
:10051000020151C257F20A0E586F0001C5DF00C038
:1005200051F20150300E08E1020152B70AD052A137
:1005300008D052B9200E0001012601C05CF20DDF87
:100540000201300E512751C25CF2000106DF120099
:10055000216A21503B0804E3300EE16F212AF9D7CC
:10056000DF2D0BD0EA6AE10EE96E000EDADD0A003B
:100570000900F550EE6E0009FBE1DF5102080BE1C6
:10058000EA6AE10EE96E000ED9DD0A000900F550B5
:10059000EE6E0009FBE101014B51030802E14C53EF
:1005A00007E04B510808D8A47DD04C53D8A47AD08A
:1005B000010E0001726F310E716F100EE96E4CC1A9
:1005C00054F24BC153F2D9DE0201526BE10E516F6E
:1005D000010E546F310E536F00012DDF010E726F4B
:1005E000310E716F2B0E02015C6F0001B6DE02014D
:1005F000526BE10E516F010E546F310E536F0001BB
:100600001ADF010E726F310E716F7BC051F21B0E3B
:100610000201526F00015EDF0201526BE10E516F69
:10062000010E546F310E536F000105DF010E726F22
:10063000310E716F2B0E02015C6F00018EDE020124
:10064000526BE10E516F010E546F310E536F00016A
:10065000F2DE010E726F310E716F7AC051F21B0E15
:100660000201526F000136DF0201526BE10E516F41
:10067000010E546F310E536F0001DDDE010E726FFB
:10068000310E716F260E02015C6F000166DE020101
:10069000526BE10E516F010E546F310E536F00011A
:1006A000CADE01014B510208D8A451D14C53D8A441
:1006B0004ED1010E0001726F310E716F100EE96E96
:1006C0004CC154F24BC153F258DE0201526BE10EA1
:1006D000516F010E546F310E536F0001ACDE010EED
:1006E000726F310E716F2B0E02015C6F000135DEEF
:1006F0000201526BE10E516F010E546F310E536FB8
:10070000000199DE010E726F310E716F7BC051F2E4
:100710001B0E0201526F0001DDDE0201526BE10E81
:10072000516F010E546F310E536F000184DE010EC4
:10073000726F310E716F2B0E02015C6F00010DDEC6
:100740000201526BE10E516F010E546F310E536F67
:10075000000171DE010E726F310E716F7AC051F2BD
:100760001B0E0201526F0001B5DE0201526BE10E59
:10077000516F010E546F310E536F00015CDE010E9C
:10078000726F310E716F2B0E02015C6F0001E5DD9F
:100790000201526BE10E516F010E546F310E536F17
:1007A000000149DED890DF35036ABC0FE96E000E08
:1007B0000320EA6EECCF52F2ED52EFCF51F2010E70
:1007C000726F310E716F100EE96E52C254F251C247
:1007D00053F2D3DD0201526BE10E516F010E546FE3
:1007E000310E536F000127DE010E726F310E716FF3
:1007F0002B0E02015C6F0001B0DD0201526BE10EB5
:10080000516F010E546F310E536F000114DED890FA
:10081000DF35036AC80FE96E000E0320EA6EECCFE5
:1008200052F2ED52EFCF51F2010E726F310E716F35
:10083000100EE96E52C254F251C253F29EDD020113
:10084000526BE10E516F010E546F310E536F000168
:10085000F2DD010E726F310E716F2B0E02015C6FB3
:1008600000017BDD0201526BE10E516F010E546FEE
:10087000310E536F0001DFDDD890DF35036AC20F00
:10088000E96E000E0320EA6EECCF52F2ED52EFCF8C
:1008900051F2010E726F310E716F100EE96E52C27D
:1008A00054F251C253F269DD0201526BE10E516FF5
:1008B000010E546F310E536F0001BDDD010E726FDA
:1008C000310E716F2B0E02015C6F000146DD0201DB
:1008D000526BE10E516F010E546F310E536F0001D8
:1008E000AADDD890DF35036ACE0FE96E000E032033
:1008F000EA6EECCF52F2ED52EFCF51F2010E726F71
:10090000310E716F100EE96E52C254F251C253F2A1
:1009100034DD0201526BE10E516F010E546F310E46
:10092000536F000188DD010E726F310E716F260E5C
:1009300002015C6F000111DD0201526BE10E516F8B
:10094000010E546F310E536F000175DD01014B51E3
:100950000408D8A4B2D04C53D8A4AFD0010E0001E3
:10096000726F310E716F100EE96E4CC154F24BC1B3
:1009700053F203DD0201526BE10E516F010E546F11
:10098000310E536F000157DD010E726F310E716F22
:100990002B0E02015C6F0001E0DC0201526BE10EE4
:1009A000516F010E546F310E536F000144DD010E83
:1009B000726F310E716F7BC051F21B0E0201526FCC
:1009C000000188DD0201526BE10E516F010E546F80
:1009D000310E536F00012FDD010E726F310E716FFA
:1009E0002B0E02015C6F0001B8DC0201526BE10EBC
:1009F000516F010E546F310E536F00011CDD010E5B
:100A0000726F310E716F7AC051F21B0E0201526F7C
:100A1000000160DD0201526BE10E516F010E546F57
:100A2000310E536F000107DD010E726F310E716FD1
:100A30002B0E02015C6F000190DC0201526BE10E93
:100A4000516F010E546F310E536F0001F4DCD890DA
:100A5000DF35036AB00FE96E000E0320EA6EECCFBB
:100A600052F2ED52EFCF51F2010E726F310E716FF3
:100A7000100EE96E52C254F251C253F27EDC0201F2
:100A8000526BE10E516F010E546F310E536F000126
:100A9000D2DC010E726F310E716F260E02015C6F97
:100AA00000015BDC0201526BE10E516F010E546FCD
:100AB000310E536F0001BFDC01014B2DEED04C53C2
:100AC000D8A4EBD0010E0001726F310E716F100EC1
:100AD000E96E4CC154F24BC153F24FDC0201526B30
:100AE000E10E516F010E546F310E536F0001A3DC04
:100AF000010E726F310E716F2B0E02015C6F0001DF
:100B00002CDC0201526BE10E516F010E546F310E5D
:100B1000536F000190DC010E726F310E716F7BC05C
:100B200051F21B0E0201526F0001D4DC0201526B24
:100B3000E10E516F010E546F310E536F00017BDCDB
:100B4000010E726F310E716F2B0E02015C6F00018E
:100B500004DC0201526BE10E516F010E546F310E35
:100B6000536F000168DC010E726F310E716F7AC035
:100B700051F21B0E0201526F0001ACDC0201526BFC
:100B8000E10E516F010E546F310E536F000153DCB3
:100B9000010E726F310E716F2B0E02015C6F00013E
:100BA000ADEC01F00201526BE10E516F010E546F7A
:100BB000310E536F00013FDCD890DF35036A980F88
:100BC000E96E000E0320EA6EECCF52F2ED52EFCF49
:100BD00051F2010E726F310E716F100EE96E52C23A
:100BE00054F251C253F2BDEC01F00201526BE10E1E
:100BF000516F010E546F310E536F00011CDC010E5A
:100C0000726F310E716F2B0E02015C6F0001ADEC43
:100C100001F00201526BE10E516F010E546F310E63
:100C2000536F000108DCD890DF35036A9E0FE96E30
:100C3000000E0320EA6EECCF52F2ED52EFCF51F2EC
:100C4000010E726F310E716F100EE96E52C254F2C6
:100C500051C253F2BDEC01F00201526BE10E516F33
:100C6000010E546F310E536F00011BEC02F0010EA8
:100C7000726F310E716F260E02015C6F0001ADECD8
:100C800001F00201526BE10E516F010E546F310EF3
:100C9000536F00011BEC02F0010100011200030E72
:100CA0000201555F0AE3020EEA6E550EE96EEF503F
:100CB00004E001D000D0EF2EFDD700011200969481
:100CC0008D849EA8FED702015451AD6EACA2FED712
:100CD000D00E556F0001E3DF000096948D84ACA226
:100CE000FED796948D9489EF06F03C0E0201526F68
:100CF000516B5151525D1CE3036A5151E10FE96E92
:100D0000000E0320EA6EEFCF53F253C254F20001FB
:100D1000D6D7036A02015151E10FE96E000E03209C
:100D2000EA6EEF50260802E151C252F2512BE1D790
:100D300000011200020EEA6E5F0EE96EEF500DE048
:100D4000060E016E006A002EFED7012EFBD77B0E29
:100D5000006E002EFED7EF2EF3D7120002015B6B60
:100D6000596B0A0E5A6F586B576B566B556B535134
:100D7000541105E1006A016A026A036A3DD15B51C0
:100D80005B2B036A5325E96E54510320EA6EEFCFC3
:100D90005CF25C512D080DE1010E596F5B515B2B2C
:100DA000036A5325E96E54510320EA6EEFCF5CF2DB
:100DB0000DD05C512B080AE15B515B2B036A532574
:100DC000E96E54510320EA6EEFCF5CF25C512F08BC
:100DD000D8B0FAD05C513908D8A0F6D05C513008B0
:100DE00021E1036A5B515325E96E54510320EA6EF9
:100DF000EF5078080AE0036A5B515325E96E5451BD
:100E00000320EA6EEF5058080DE1100E5A6F5B2B6D
:100E10005B515B2B036A5325E96E54510320EA6E44
:100E2000EFCF5CF25A510A0844E15C512F0840E2CE
:100E30005C5139083DE3D89055355E6F56355F6F8C
:100E40005735606F5835616F5535006E5635016EF8
:100E50005735026E5835036E0036013602360336BA
:100E60000036013602360336F80E00165E510026B3
:100E70005F510122605102226151032203C058F2E6
:100E800002C057F201C056F200C055F2300E5C5D50
:100E90005527000E5623572358235B515B2B036ABB
:100EA0005325E96E54510320EA6EEFCF5CF2BDD7B3
:100EB0008BD05A511008D8A487D05C51600806E244
:100EC0005C517A0803E35C51DF0B01D05C515C6F2D
:100ED0005C512F0803E25C51390807E25C5140087D
:100EE000D8B072D05C5146086FE35C512F082DE2F8
:100EF0005C5139082AE355355E6F56355F6F5735BB
:100F0000606F5835616F5E375F37603761375E37C6
:100F10005F37603761375E375F3760376137F00EB4
:100F20005E17300E5C5D5E25006E000E5F21016E67
:100F3000000E6021026E000E6121586F02C057F250
:100F400001C056F200C055F22AD055355E6F5635B5
:100F50005F6F5735606F5835616F5E375F37603749
:100F600061375E375F37603761375E375F376037CD
:100F70006137F00E5E17410E5C5D0A0F5E25006E54
:100F8000000E5F21016E000E6021026E000E6121D5
:100F9000586F02C057F201C056F200C055F25B51C3
:100FA0005B2B036A5325E96E54510320EA6EEF5020
:100FB0005C6F600806E25C517A0803E35C51DF0B6A
:100FC00001D05C515C6F84D75A510A080DE1592D4C
:100FD0000BD0551F561F571F581F552BD8B4562BD3
:100FE000D8B4572BD8B4582B55C200F056C201F0D4
:100FF00057C202F058C203F000011200D96B320E42
:10100000DE6FDD6B080E216E2150DE5DD8A0B5D1FC
:10101000036A2150FF0FE96E000E0320EA6EEF50C5
:10102000260806E1DD2D04D0010EDD6F21C0DEF0C3
:10103000036A2150FF0FE96E000E0320EA6EEF50A5
:101040002B0827E0036A2150FF0FE96E000E0320F2
:10105000EA6EEF5026081DE0036AD851270F016E93
:10106000010E0322020103C052F2036A2150FF0F56
:10107000E96E000E0320EA6EEFCF53F252C2EAFF90
:1010800001C0E9FF53C2EFFF010E0001D827DD6B5D
:1010900072D1DA6BDA5103080BE3036ADA512C0FD1
:1010A000E96E010E0320EA6E300EEF6EDA2BF2D7F6
:1010B000DA6BD851DA5D20E2040ED880D855DA25F3
:1010C000036A2C0F016E010E0322020103C052F2CB
:1010D000036A0001DA51270FE96E010E0320EA6E60
:1010E000EFCF53F2020152C2EAFF01C0E9FF53C23F
:1010F000EFFF0001DA2BDDD7D86BD9530FE1DD2DDF
:1011000001D00CD0010E0201546F2C0E536F000160
:1011100025DE00C084F1010ED96FDD6FD92D52D0CC
:10112000DD2D01D04FD00101842D1DD0D8900001BC
:10113000DF35036A800F016E000E032201C051F2F9
:10114000020103C052F2010E546F2C0E536F0001C6
:1011500005DE52C2EAFF51C2E9FF01C0ECFFED52C9
:1011600000C0EFFF01018451020812E10001DF2DF0
:1011700001D002D001010CD085C189F1010E02011C
:10118000546F2C0E536F0001E9DD00C085F10101A1
:101190008451020812E10001DF510208D8B402D0E4
:1011A00001010BD087C18BF1010E0201546F2C0E8F
:1011B000536F0001D3DD00C087F1020E0001D96F2B
:1011C000010EDD6FD951020852E1DD2D01D04FD063
:1011D0000101842D1DD0D8900001DF35036A860FF0
:1011E000016E000E032201C051F2020103C052F24F
:1011F000010E546F2C0E536F0001B0DD52C2EAFF96
:1012000051C2E9FF01C0ECFFED5200C0EFFF010148
:101210008451020812E10001DF2D01D002D001014A
:101220000CD086C18AF1010E0201546F2C0E536F4F
:10123000000194DD00C086F101018451020812E131
:101240000001DF510208D8B402D001010BD088C1DF
:101250008CF1010E0201546F2C0E536F00017EDDE4
:1012600000C088F1030E0001D96F010EDD6FD95166
:10127000030852E1DD2D01D04FD00101842D1DD096
:10128000D8900001DF35036A8C0F016E000E032237
:1012900001C051F2020103C052F2010E546F2C0E34
:1012A000536F00015BDD52C2EAFF51C2E9FF01C08A
:1012B000ECFFED5200C0EFFF01018451020812E182
:1012C0000001DF2D01D002D001010CD08DC18EF1C3
:1012D000010E0201546F2C0E536F00013FDD00C060
:1012E0008DF101018451020812E10001DF51020871
:1012F000D8B402D001010BD08FC190F1010E0201D0
:10130000546F2C0E536F000129DD00C08FF1040EC5
:101310000001D96F010EDD6FD95104082CE1DD2DDC
:1013200001D029D00101842D1DD0D8900001DF35D6
:10133000036A920F016E000E032201C051F20201F6
:1013400003C052F2010E546F2C0E536F000106DDE4
:1013500052C2EAFF51C2E9FF01C0ECFFED5200C0EA
:10136000EFFF01018451020800E00001D96B010E7A
:10137000DD6F21C0DEF0212A47D69CEF0BF0020181
:10138000515308E194908B9094928B9295968C9601
:1013900094948B94512D06D094908B9094928B8240
:1013A000958694845151020806E1948094928B9220
:1013B00095968C8694845151030806E1948094821A
:1013C00095968C9694948B840001120001015051E3
:1013D000000A000107E0010AD8B417D1030AD8B403
:1013E00047D1F4D1F2CF51F2F29EA96AA69CA69EF3
:1013F000A680A850020151BFF28E00019B6B9A6F2C
:10140000F2CF51F2F29E010EA96EA69CA69EA68076
:10141000A850020151BFF28E0001A16BA06FF2CF64
:1014200051F2F29E020EA96EA69CA69EA680A8501E
:10143000020151BFF28E00019D6B9C6FF2CF51F201
:10144000F29E030EA96EA69CA69EA680A85002013D
:1014500051BFF28E0001A36BA26F216A21500208D6
:1014600062E3036A21505F0FE96E010E0320EA6E0A
:10147000EF6A036A2150620FE96E010E0320EA6EE3
:10148000EF6A036A2150650FE96E010E0320EA6ED0
:10149000EF6A036A2150680FE96E010E0320EA6EBD
:1014A000EF6A036A21506B0FE96E010E0320EA6EAA
:1014B000EF6A036A21506E0FE96E010E0320EA6E97
:1014C000EF6A036A2150710FE96E010E0320EA6E84
:1014D000EF6A036A2150740FE96E010E0320EA6E71
:1014E000EF6A036A2150770FE96E010E0320EA6E5E
:1014F000EF6A036A21507A0FE96E010E0320EA6E4B
:10150000EF6A036A21507D0FE96E010E0320EA6E37
:10151000EF6A036A2150800FE96E010E0320EA6E24
:10152000EF6A212A9BD70101976B0001BF6BBE6B4D
:10153000C16BC06BCB6BCA6BCD6BCC6BC56BC46B1B
:10154000C76BC66BD16BD06BD36BD26BB96B2C0EE8
:10155000B86FBB6BBA6FB36BB26FB56BB46F836BA5
:10156000010E826F856B846F896B886F8B6B8A6FBE
:101570008F6B8E6F916B906F956B946F976B966F6F
:1015800001014C6B4B6F020E0001DF6FDC6BA8ECAE
:1015900002F075EC06F0DC5313E10101A651A55DE4
:1015A00002E0010EA527A651A55D03E1010E000191
:1015B000DC6F0A0E02015F6F00019AEC06F0EBD7B8
:1015C00001014C6B010E4B6F0001DF6FDC6BA8EC6F
:1015D00002F075EC06F0DC5313E10101A651A45DA5
:1015E00002E0010EA427A651A45D03E1010E000153
:1015F000DC6F0A0E02015F6F00019AEC06F0EBD778
:10160000020E0101506F0001E1D0DF2D03D0020E68
:10161000DF6F02D0010EDF6F01014B51030807E1BC
:101620004C5305E1842D03D04C6B080E4B6F000129
:10163000A8EC02F075EC06F001014B514D5D0EE196
:101640004C514E5D0BE10001DF51E05DD8A402D0AA
:10165000010104D001014C6B080E4B6F4CC14EF1DF
:101660004BC14DF1DFC0E0F0020E506F0001AED073
:10167000FF5130082FE1010100513008D8B402D0E9
:10168000000128D001513008D8B402D0000122D086
:1016900002513008D8B402D000011CD003513008E8
:1016A000D8B402D0000116D004513008D8B402D00A
:1016B000000110D005513008D8B402D000010AD082
:1016C00006513108D8B402D0000104D00001DC2D4D
:1016D00001D031D0FF51300850E1010100513008F4
:1016E000D8B402D0000149D001513008D8B402D09A
:1016F000000143D002513008D8B402D000013DD0DF
:1017000003513008D8B402D0000137D0045130085A
:10171000D8B402D0000131D005513108D8B402D07C
:1017200000012BD006513008D8B402D0000125D0DA
:101730000001DC2D22D062D4DC6BDF2D0CD0010146
:10174000A651A45DD8A402D0000105D0010E02016B
:10175000516F000114DEDF5102080CE10101A651B6
:10176000A55DD8A402D0000105D0020E0201516F80
:10177000000105DE010E0101506F0101A651A45DBB
:1017800010E10001DF2D01D002D001010AD0010ECD
:101790000101506F0001DC6B0201516B0001EFDDB4
:1017A0000101A651A55D10E10001DF510208D8B486
:1017B00002D0010109D0010E0101506F0001DC6B64
:1017C0000201516B0001DBDD000100D0CC0E0101F4
:1017D000AE6F130EAF6F8BEF3FF0000112000201EE
:1017E000676B959E8C8E00D000D000009588679125
:1017F00083B867819584679383B46783958267957F
:1018000083B267859580679783B06787959E8C9E26
:1018100000D000D0000067C201F000011200959ACC
:101820008C8A0000DCDF01C066F2D9DF01C065F2FE
:1018300002016639006EF00E001600506511016E4F
:1018400000014AEF0CF0020166B102D08C9801D081
:101850008C88959866B302D08C9401D08C84959432
:1018600066B502D08C9201D08C82959266B702D078
:101870008C9001D08C8095900000959E8C8E030EEC
:10188000006E002EFED7959E8C9E00011200959C46
:101890008C9CC5D701C065F2020101AE02D00001E7
:1018A000F8D7635303E0959C8C8C02D0959C8C9C5C
:1018B0000000959A8C9A0000959E8C9E6439656F05
:1018C0000F0E651765C266F20001BDDF02016451AB
:1018D0000F0B656F666F0001B6DF120002016051E9
:1018E000010A000107E0030A08E0010A0AE0070A0A
:1018F0000CE00FD00201616B0FD0400E0201616F4E
:101900000BD0100E0201616F07D0500E0201616F03
:1019100003D00201616B00D0010E5F5D6127615150
:101920008009626F636B646F0001B1DF1200020116
:101930005E510C0A000105E0060A12E0020A19E0F5
:101940001FD00201636B010E646F0001A0DF010E66
:101950001A6E020E02015F6F00019AEC06F018D0B9
:101960001A2A010E02015F6F1AC060F20001B6DF91
:101970000FD00201636B100E646F000188DF08D086
:10198000010E0201636F5EC264F2000180DF00D0CD
:1019900012000900F5520CE0F6CF51F2F7CF52F2E7
:1019A000F5CF5EF2C4DF51C2F6FF52C2F7FFF1D7A6
:1019B00012000900F6CF56F2F7CF57F2F5CF5EF2DC
:1019C000B6DF56C2F6FF57C2F7FF0201552F01D00E
:1019D00002D00001EED700011200015051C257F2AF
:1019E000640E0201586F000154EC02F000C051F285
:1019F0000150300E08E1020152A30FD052B70DD0B2
:101A000052B9200E04D002015297529952810126F8
:101A100001C05EF200018BDF020151C257F20A0ED3
:101A2000586F000154EC02F000C051F20150300E2A
:101A300008E1020152B70AD052A108D052B9200ED3
:101A40000001012601C05EF272DF0201300E512753
:101A500051C25EF200016BDF1200006A016A0201EE
:101A60005851D89059B100260032013259B300269E
:101A70000032013259B500260032013259B7002632
:101A80000032013259B900260032013259BB00261A
:101A90000032013259BD00260032013259BF002602
:101AA000003201320001C3EF0DF00201566B546B9E
:101AB0000A0E556F536B5151521103E1000E016E26
:101AC000C3D05651562B036A5125E96E525103205B
:101AD000EA6EEFCF57F257512D080DE1010E546F0A
:101AE0005651562B036A5125E96E52510320EA6E76
:101AF000EFCF57F20DD057512B080AE15651562B14
:101B0000036A5125E96E52510320EA6EEFCF57F276
:101B100057512F08D8B090D057513908D8A08CD041
:101B20005751300821E1036A56515125E96E52514F
:101B30000320EA6EEF5078080AE0036A56515125F7
:101B4000E96E52510320EA6EEF5058080DE1100E75
:101B5000556F562B5651562B036A5125E96E52513B
:101B60000320EA6EEFCF57F255510A081DE1575195
:101B70002F0819E25751390816E30A0E586F53C25D
:101B800059F200016AD7300E0201575D0124536FEC
:101B90005651562B036A5125E96E52510320EA6EC5
:101BA000EFCF57F2E4D748D05551100845E15751CF
:101BB000600806E257517A0803E35751DF0B01D062
:101BC0005751576F57512F0803E25751390806E212
:101BD0005751400831E2575146082EE357512F081C
:101BE0000CE25751390809E35339586FF00E581772
:101BF000300E575D5825536F09D05339586FF00E8A
:101C00005817410E575D0A0F5825536F5651562BE2
:101C1000036A5125E96E52510320EA6EEFCF57F265
:101C20005751600806E257517A0803E35751DF0B1A
:101C300001D05751576FC6D7542D04D055510A08BB
:101C400001E1536D53C201F000011200080E016E54
:101C5000050E006E002EFED78A929392060E006E3D
:101C6000002EFED7020159378A90D8B09380D8A0B1
:101C70009390938281A2FED7012E01D002D0000161
:101C8000E7D7050E006E002EFED78A9293920000D1
:101C90009380060E006E002EFED7060E006E002EFC
:101CA000FED7938281A2FED7016A060E006E002E37
:101CB000FED781B001808A9293928A90939000011E
:101CC000120058C259F202015A6B5951090805E233
:101CD0000A0E595F100E5A2703D059515A2701D0C6
:101CE000F4D75AC201F000011200F29CF29EF2BE3B
:101CF000FDD70201579F3F0E55179380050E006ECA
:101D0000002EFED79382060E006E002EFED78A901C
:101D10009390050E006E002EFED78A929392D00EFD
:101D2000596F000193DF0201596B00018FDF57C229
:101D300058F2C7DF01C058F201C059F287DF56C21E
:101D400058F2BFDF01C058F201C059F27FDF55C21F
:101D500058F2B7DF01C058F201C059F277DF54C220
:101D600058F2AFDF01C058F201C059F26FDF51C223
:101D700058F2A7DF01C058F201C059F267DF52C222
:101D800058F29FDF01C058F201C059F25FDF53C221
:101D900058F297DF01C058F201C059F257DF939013
:101DA0000000938281A2FED7050E006E002EFED7A2
:101DB00000D000009380050E006E002EFED7C00EEE
:101DC000F212C2EF13F0200E020152A9300E536F2F
:101DD00051C200F051AF08D0001E002A00C051F2DD
:101DE0002D0E536F528F5281015051C257F2640E23
:101DF000586F000154EC02F000C051F2300E012483
:101E00000201546F51C257F20A0E586F000154EC90
:101E100002F0300E00240201566F300E0124556F7F
:101E200053C200F0300E545D04E0528352BF52851D
:101E300012D053C254F2200E536F300E555D04E0A1
:101E4000528152BF528307D0D8A4528104E154C2B8
:101E500055F2200E546F52B505D052B307D052B18F
:101E600009D00CD053C25EF2000161DD54C25EF2B3
:101E700000015DDD55C25EF2000159DD56C25EF221
:101E8000000155DD1200EACF5BF2E9CF5AF2020100
:101E90005439F009566F5627E20F576F320F596FBA
:101EA00054510F0B572757275927E90F586F5827B9
:101EB000582753390F0B5827592758375937591F67
:101EC000593753510F0B59275637070E556F0A0EC6
:101ED00058075927FDE357075827FDE356075727AB
:101EE000FDE355075627FDE3020EEA6E550EE96E37
:101EF000070E5A155A9DE926590EE95CD8B45A8D39
:101F0000EF50006E08E15ABD06D05AB915D05AB745
:101F100002D0200E03D05A875A99300E0026EACFFD
:101F200054F2E9CF53F200C05EF2000100DD54C26A
:101F3000EAFF53C2E9FF0201EE505AADDDD70001BE
:101F40001200EACF5DF2E9CF5CF2020156AF08D091
:101F50005C8F5CA95C2B551F561F552BD8B4562B94
:101F60005639F009586F5827E20F596F320F5B6FDF
:101F700056510F0B592759275B27E90F5A6F5A27DC
:101F80005A2755390F0B5A275B275A375B375B1F88
:101F90005B3755510F0B5B275837070E576F0A0EEB
:101FA0005A075B27FDE359075A27FDE358075927CE
:101FB000FDE357075827FDE3020EEA6E570EE96E60
:101FC000070E5C155C9DE9065C1507E15CB9E92A22
:101FD0005CB903D0200E006E1CD0E9265B0EE95CD4
:101FE000D8B45C8DEF50006E08E15CBD06D05CB9E2
:101FF0001DD05CB702D0200E0BD05CAF06D02D0EEA
:10200000006EED505C9D5C9F04D05C875C99300E47
:102010000026EACF56F2E9CF55F200C05EF2000189
:1020200086DC56C2EAFF55C2E9FF0201EE505CAD04
:10203000D5D70001120001015151EC0FD8B03CEF8F
:1020400028F0140F000144EF28F00C0E02015E6F1F
:1020500000016DDC010E02015F6F606F00013EDC6C
:10206000CA0EF66E500EF76E94DC010E02015F6F21
:10207000020E606F000132DCD60EF66E500EF76E67
:1020800088DC010E02015F6F030E606F000126DC29
:10209000E60EF66E500EF76E7CDC010E02015F6FED
:1020A000040E606F00011ADCF20EF66E500EF76E31
:1020B00070DC050E0201516FD20E5F6F00019AECC9
:1020C00006F00201512FF8D7010E0101516F536B39
:1020D0005A0E1F6E4C6B080E4B6F3CEF28F001013F
:1020E0005353D8A478D00C0E02015E6F00011FDCA0
:1020F000010E02015F6F606F00016EEC0CF0F80ED4
:10210000F66E500EF76E45DC010E02015F6F040E95
:10211000606F00016EEC0CF0080EF66E510EF76E5B
:1021200038DC0101556B566B576B586B596B010EC0
:10213000536F5A0E1F6E216A215002080BE3036A87
:102140002150380FE96E010E0320EA6E300EEF6E5B
:10215000212AF2D7216A215002080BE3036A215099
:102160003B0FE96E010E0320EA6E300EEF6E212A5E
:10217000F2D7216A215002080BE3036A21503E0F77
:10218000E96E010E0320EA6E300EEF6E212AF2D7BF
:10219000216A215002080BE3036A2150410FE96EC6
:1021A000010E0320EA6E300EEF6E212AF2D7216A6B
:1021B000215002080BE3036A2150440FE96E010E1F
:1021C0000320EA6E300EEF6E212AF2D74F6B010E1C
:1021D000536F5A0E1F6E4F53D8A407D1010E020140
:1021E0005F6F020E606F00016EEC0CF0160EF66E63
:1021F000510EF76EC9EC0CF0010E02015F6F020E7A
:10220000606F00016EEC0CF07C51090813E3220EA4
:10221000F66E510EF76E070E0201556F0001D9ECF4
:102220000CF07CC051F21B0E0201526F0001EDEC6C
:102230000CF012D02C0EF66E510EF76E060E020147
:10224000556F0001D9EC0CF07CC051F21B0E02015D
:10225000526F0001EDEC0CF0090E02015F6F020EEF
:10226000606F00016EEC0CF07D51090815E32F0E34
:1022700002015E6F000197EC0CF0300E02015E6F00
:10228000000197EC0CF07DC051F21B0E0201526F61
:102290000001EDEC0CF00ED02F0E02015E6F00017C
:1022A00097EC0CF07DC051F21B0E0201526F000141
:1022B000EDEC0CF00C0E02015F6F020E606F00017E
:1022C0006EEC0CF07E51090815E32F0E02015E6FD3
:1022D000000197EC0CF0300E02015E6F000197ECEC
:1022E0000CF07EC051F21B0E0201526F0001EDECAA
:1022F0000CF00ED02F0E02015E6F000197EC0CF077
:102300007EC051F21B0E0201526F0001EDEC0CF089
:10231000010E02015F6F030E606F00016EEC0CF0A6
:10232000360EF66E510EF76EC9EC0CF0010E02017E
:102330005F6F030E606F00016EEC0CF07B510908BB
:1023400019E3420EF66E510EF76E060E0201556F3E
:102350000001D9EC0CF07BC051F21B0E0201526F50
:102360000001EDEC0CF03A0E02015E6F000197ECFB
:102370000CF018D04C0EF66E510EF76E050E0201E1
:10238000556F0001D9EC0CF07BC051F21B0E02011D
:10239000526F0001EDEC0CF03A0E02015E6F00018D
:1023A00097EC0CF0090E02015F6F030E606F0001E5
:1023B0006EEC0CF07A5109080FE3300E02015E6FEB
:1023C000000197EC0CF07AC051F21B0E0201526F23
:1023D0000001EDEC0CF008D07AC051F21B0E0201A6
:1023E000526F0001EDEC0CF001011F5042084DE16D
:1023F000010E4F6F02015F6F020E606F00016EEC05
:102400000CF0560EF66E510EF76EC9EC0CF0010E84
:1024100002015F6F020E606F00016EEC0CF0660E41
:10242000F66E510EF76EC9EC0CF0700EF66E510E92
:10243000F76EC9EC0CF0740EF66E510EF76EC9EC27
:102440000CF0010E02015F6F030E606F00016EEC75
:102450000CF0780EF66E510EF76EC9EC0CF0010E12
:1024600002015F6F030E606F00016EEC0CF0840ED2
:10247000F66E510EF76EC9EC0CF00101556B566B00
:10248000576B586B596B5A0E1F6E4F2D0ED11F5044
:102490005A0833E05751010830E31F5041082DE03E
:1024A0001F5042082AE01F50430827E01F504408ED
:1024B00024E01F50450821E01F5046081EE0036A33
:1024C00057513E0FE96E010E0320EA6E1FC0EFFF69
:1024D000070E57250201516F5F6F020E606F0001FA
:1024E0006EEC0CF01FC05EF297EC0CF00101572B64
:1024F0005A0E1F6E572D01D0406B1F505A0833E003
:102500005851010830E31F5041082DE01F50420888
:102510002AE01F50430827E01F50440824E01F50C2
:10252000450821E01F5046081EE0036A5851410F3C
:10253000E96E010E0320EA6E1FC0EFFF0A0E582558
:102540000201516F5F6F020E606F00016EEC0CF0C4
:102550001FC05EF297EC0CF00101582B5A0E1F6E53
:10256000582D01D0436B1F505A0833E059510108D0
:1025700030E31F5041082DE01F5042082AE01F5051
:10258000430827E01F50440824E01F50450821E07D
:102590001F5046081EE0036A5951440FE96E010EB0
:1025A0000320EA6E1FC0EFFF0D0E59250201516F87
:1025B0005F6F020E606F00016EEC0CF01FC05EF2E8
:1025C00097EC0CF00101592B5A0E1F6E592D01D0BA
:1025D000466B1F505A0833E05551010830E31F5035
:1025E00041082DE01F5042082AE01F50430827E011
:1025F0001F50440824E01F50450821E01F504608A2
:102600001EE0036A5551380FE96E010E0320EA6E91
:102610001FC0EFFF060E55250201516F5F6F030EBD
:10262000606F00016EEC0CF01FC05EF297EC0CF0D6
:102630000101552B5A0E1F6E552D01D03A6B1F50BC
:102640005A0833E05651010830E31F5041082DE08D
:102650001F5042082AE01F50430827E01F5044083B
:1026600024E01F50450821E01F5046081EE0036A81
:1026700056513B0FE96E010E0320EA6E1FC0EFFFBB
:10268000090E56250201516F5F6F030E606F000146
:102690006EEC0CF01FC05EF297EC0CF00101562BB3
:1026A0005A0E1F6E562D01D03D6B010E516F1F50FB
:1026B0004108D8A4F3D04F2DF1D0010E0201526F82
:1026C000380E516F000155EC0DF001C07BF0010E8A
:1026D0000201526F3B0E516F000155EC0DF001C02D
:1026E0007AF0010E0201526F3E0E516F000155EC5F
:1026F0000DF001C07CF0010E0201526F410E516FCE
:10270000000155EC0DF001C07DF0010E0201526F89
:10271000440E516F000155EC0DF001C07EF0020E29
:102720007F6F796B7B5117083BE37A513C0838E3A4
:102730007C51000835E27C511F0832E37D510008CE
:102740002FE27D510C082CE37E51630829E301013F
:102750004F5302E0000E00D00F0E02015F6F000128
:102760009AEC06F07CC051F27DC052F27EC053F26A
:102770007FC054F27BC055F27AC056F279C057F24E
:1027800075EF0EF00F0E02015F6F00019AEC06F07C
:10279000020E0101516F536B5A0E1F6E7FD0000164
:1027A000010E02015F6F030E606F00016EEC0CF012
:1027B000900EF66E510EF76EC9EC0CF0010E020190
:1027C0005F6F030E606F00016EEC0CF09C0EF66EF6
:1027D000510EF76EC9EC0CF0020E0201516FFA0EA9
:1027E0005F6F00019AEC06F00201512FF8D7010E3D
:1027F0005F6F030E606F00016EEC0CF0A20EF66EC0
:10280000510EF76EC9EC0CF0010E02015F6F020E63
:10281000606F00016EEC0CF0AE0EF66E510EF76EAE
:10282000C9EC0CF0010E02015F6F020E606F000137
:102830006EEC0CF0BA0EF66E510EF76EC9EC0CF0A1
:10284000020E0201516FFA0E5F6F00019AEC06F062
:102850000201512FF8D7010E5F6F020E606F000169
:102860006EEC0CF0C00EF66E510EF76EC9EC0CF06B
:10287000CA0EF66E510EF76EC9EC0CF0CE0EF66E67
:10288000510EF76EC9EC0CF00101556B566B576B8E
:10289000586B596B5A0E1F6E010E4F6F1F50410837
:1028A00007E14F5305E1020E516F5A0E1F6E536B35
:1028B0003CEF28F00101535342E10C0E02015E6F20
:1028C000000197EC0CF0010E02015F6F606F0001D8
:1028D0006EEC0CF0D20EF66E510EF76EC9EC0CF0E9
:1028E000010E02015F6F020E606F00016EEC0CF0D2
:1028F000E40EF66E510EF76EC9EC0CF0010E0201FB
:102900005F6F030E606F00016EEC0CF0F20EF66E5E
:10291000510EF76EC9EC0CF0010E02015F6F040E50
:10292000606F00016EEC0CF0020EF66E520EF76E48
:10293000C9EC0CF0010E0101536F5A0E1F6E1F50AF
:10294000410805E1060E516F5A0E1F6E536B1F5062
:10295000420805E1010E516F5A0E1F6E536B1F5056
:10296000430805E1030E516F5A0E1F6E536B3CEF87
:1029700028F00101535342E10C0E02015E6F000189
:1029800097EC0CF0010E02015F6F606F00016EECBE
:102990000CF00A0EF66E520EF76EC9EC0CF0010E3A
:1029A00002015F6F020E606F00016EEC0CF01C0EF6
:1029B000F66E520EF76EC9EC0CF0010E02015F6F5D
:1029C000030E606F00016EEC0CF02A0EF66E520ED4
:1029D000F76EC9EC0CF0010E02015F6F040E606F20
:1029E00000016EEC0CF0360EF66E520EF76EC9EC6E
:1029F0000CF0010E0101536F5A0E1F6E030E516F42
:102A00001F50410805E10B0E516F536B5A0E1F6E9C
:102A10001F5042080FE10D0E516F536B5A0E1F6E7F
:102A20000001B36B2D0EB26FB56BB46F01014C6B2F
:102A3000040E4B6F1F50430805E1040E516F536B9A
:102A40005A0E1F6E3CEF28F00101535334E10C0E77
:102A500002015E6F000197EC0CF0010E02015F6F46
:102A6000606F00016EEC0CF03E0EF66E520EF76ECB
:102A7000C9EC0CF0010E02015F6F020E606F0001E5
:102A80006EEC0CF0500EF66E520EF76EC9EC0CF0B8
:102A9000010E02015F6F040E606F00016EEC0CF01E
:102AA0005A0EF66E520EF76EC9EC0CF0010E0101D3
:102AB000536F5A0E1F6E040E516F1F50410805E1EF
:102AC000100E516F5A0E1F6E536B1F50430805E1D5
:102AD000020E516F5A0E1F6E536B3CEF28F001012E
:102AE000535356E10C0E02015E6F000197EC0CF09F
:102AF000010E02015F6F606F00016EEC0CF0620E60
:102B0000F66E520EF76EC9EC0CF0010E02015F6F0B
:102B1000020E606F00016EEC0CF0740EF66E520E39
:102B2000F76EC9EC0CF0010E02015F6F030E606FCF
:102B300000016EEC0CF07E0EF66E520EF76EC9ECD4
:102B40000CF0010E02015F6F040E606F00016EEC6D
:102B50000CF0860EF66E520EF76EC9EC0CF0010109
:102B6000556B010E536F5A0E1F6E0001D56BD46B5F
:102B7000216A215002080BE3036A2150380FE96EE5
:102B8000010E0320EA6E300EEF6E212AF2D701010A
:102B90001F505A082FE055532DE11F5041082AE0DD
:102BA0001F50420827E01F50430824E01F504408EC
:102BB00021E01F5045081EE01F5046081BE0036A35
:102BC0005551380FE96E010E0320EA6E1FC0EFFF6A
:102BD000080E02015F6F020E606F00016EEC0CF0D8
:102BE0001FC05EF297EC0CF00101396B010E556FBE
:102BF0005A0E1F6E060E516F1F504108D8A47ED08A
:102C0000010E0201526F380E516F000155EC0DF0AC
:102C1000036A01C0D4F003C0D5F0D45302E1D55308
:102C200027E0D55325E1D4510101545DD8B002D03D
:102C300000011ED0A651A45D07E00001D451020896
:102C40000EE1D5530CE10101A651A55DD8A402D037
:102C500000010ED00001D42D02D0D55309E0D4C01C
:102C60005EF1070E0101516F536B556B47D00001A8
:102C7000010E02015F6F020E606F00016EEC0CF03E
:102C80008E0EF66E520EF76EC9EC0CF0010E0201BC
:102C90005F6F020E606F00016EEC0CF0980EF66E26
:102CA000520EF76EC9EC0CF0020E0201516FFA0ED3
:102CB0005F6F00019AEC06F00201512FF8D7010E68
:102CC0005F6F020E606F00016EEC0CF09E0EF66EF0
:102CD000520EF76EC9EC0CF0010E02015F6F020E8E
:102CE000606F00016EEC0CF0A40EF66E520EF76EE3
:102CF000C9EC0CF00101556B050E526F1F504208D4
:102D000005E1020E516F536B5A0E1F6E5A0E1F6E65
:102D10003CEF28F00101535341E10C0E02015E6FBC
:102D2000000197EC0CF0010E02015F6F606F000173
:102D30006EEC0CF00C0E02015E6F000197EC0CF0D3
:102D4000010E02015F6F606F00016EEC0CF0AE0EC1
:102D5000F66E520EF76EC9EC0CF0010E02015F6FB9
:102D6000020E606F00016EEC0CF0C00EF66E520E9B
:102D7000F76EC9EC0CF0010E02015F6F040E606F7C
:102D800000016EEC0CF0D00EF66E520EF76EC9EC30
:102D90000CF0010E0101536F5A0E1F6E070E516F9A
:102DA0001F50410805E1080E516F536B5A0E1F6EFC
:102DB0001F50420805E10A0E516F536B5A0E1F6EE9
:102DC0003CEF28F001015353D8A4D3D00C0E0201DC
:102DD0005E6F000197EC0CF0010E02015F6F606FF7
:102DE00000016EEC0CF0E20EF66E520EF76E070E5E
:102DF0000201556F0001D9EC0CF05EC151F2180EC2
:102E00000201526F0001E3EC0EF0010E02015F6F50
:102E1000020E606F00016EEC0CF0D89001015E357F
:102E2000036A980FE96E000E0320EA6EECCF52F2AF
:102E3000ED52EFCF51F2EC0EF66E520EF76E040E1D
:102E40000201556F0001D9EC0CF0100EE96E52C270
:102E500054F251C253F243EC0FF0070E02015F6FC0
:102E6000020E606F00016EEC0CF0F40EF66E520E66
:102E7000F76EC9EC0CF00A0E02015F6F020E606F74
:102E800000016EEC0CF0D89001015E35036A9E0FD4
:102E9000E96E000E0320EA6EECCF52F2ED52EFCF56
:102EA00051F2F60EF66E520EF76E040E0201556FD9
:102EB0000001D9EC0CF0100EE96E52C254F251C26E
:102EC00053F243EC0FF0100E02015F6F020E606FC1
:102ED00000016EEC0CF0FE0EF66E520EF76EC9ECB1
:102EE0000CF0010E02015F6F030E606F00016EECCB
:102EF0000CF0000EF66E530EF76EC9EC0CF0010EDE
:102F000002015F6F040E606F00016EEC0CF00E0E9C
:102F1000F66E530EF76EC9EC0CF00101556B566B53
:102F2000010E536F5A0E1F6E216A215002080BE3E7
:102F3000036A2150380FE96E010E0320EA6E300E4D
:102F4000EF6E212AF2D7216A215002080BE3036AAF
:102F500021503B0FE96E010E0320EA6E300EEF6E3A
:102F6000212AF2D74F6B0001D56BD46BD76BD66B90
:102F700001011F5041083EE1010E4F6F02015F6FDA
:102F8000020E606F00016EEC0CF01C0EF66E530E1C
:102F9000F76EC9EC0CF0010E02015F6F020E606F5C
:102FA00000016EEC0CF0240EF66E530EF76EC9ECB9
:102FB0000CF00A0E02015F6F020E606F00016EECF2
:102FC0000CF02C0EF66E530EF76EC9EC0CF00A0ED8
:102FD00002015F6F020E606F00016EEC0CF0340EA8
:102FE000F66E530EF76EC9EC0CF00101556B566B83
:102FF0005A0E1F6E4F2D6CD01F505A0833E055519A
:10300000010830E31F5041082DE01F5042082AE01C
:103010001F50430827E01F50440824E01F50450874
:1030200021E01F5046081EE0036A5551380FE96E33
:10303000010E0320EA6E1FC0EFFF050E55250201A9
:10304000516F5F6F020E606F00016EEC0CF01FC0DD
:103050005EF297EC0CF00101552B5A0E1F6E552DA8
:1030600001D03A6B1F505A0833E05651010830E343
:103070001F5041082DE01F5042082AE01F5043080E
:1030800027E01F50440824E01F50450821E01F504E
:1030900046081EE0036A56513B0FE96E010E0320FD
:1030A000EA6E1FC0EFFF0E0E56250201516F5F6FD3
:1030B000020E606F00016EEC0CF01FC05EF297EC28
:1030C0000CF00101562B5A0E1F6E562D01D03D6B90
:1030D000080E516F1F504208D8A467D1010E02019B
:1030E000546F380E536F0001AEEC06F001C0D5F0FE
:1030F00000C0D4F0010E0201546F3B0E536F00016B
:10310000AEEC06F001C0D7F000C0D6F0D45302E117
:10311000D55311E0D5530FE1D45163080CE3D553D7
:103120000AE1D451630807E3D551D75D04E30BE10D
:10313000D651D45D08E3D651D45DD8A4C7D0D751B9
:10314000D55DD8A4C3D0090E0101516F536B5A0E3F
:103150001F6E4F2DB4D0D8905E35036AA40F016E58
:10316000000E0322020103C052F2D89001015E3525
:10317000036A980FE96E000E0320EA6EECCF03F0AD
:10318000ED52EFCF53F2020152C2EAFF01C0E9FF54
:1031900003C0ECFFED5253C2EFFFD89001015E3542
:1031A000036AAA0F016E000E0322020103C052F24D
:1031B000D89001015E35036A9E0FE96E000E032070
:1031C000EA6EECCF03F0ED52EFCF53F2020152C2A0
:1031D000EAFF01C0E9FF03C0ECFFED5253C2EFFF6D
:1031E000D89001015E35036A980FE96E000E032046
:1031F000EA6ED5C0ECFFED52D4C0EFFFD8905E353B
:10320000036A9E0FE96E000E0320EA6ED7C0ECFF42
:10321000ED52D6C0EFFF4C6B010E4B6FA96A9AC0FE
:10322000A8FFA69CA69EA684F250006EF29E0F01F7
:10323000550EA76EAA0EA76EA682A6B2FED7A694BA
:103240000050F212010EA96EA0C0A8FFA69CA69E77
:10325000A684F2CF00F0F29E550EA76EAA0EA76EBE
:10326000A682A6B2FED7A6940050F212020EA96E54
:103270009CC0A8FFA69CA69EA684F2CF00F0F29E5A
:10328000550EA76EAA0EA76EA682A6B2FED7A6946A
:103290000050F212030EA96EA2C0A8FFA69CA69E23
:1032A000A684F2CF00F0F29E550EA76EAA0EA76E6E
:1032B000A682A6B2FED7A6940050F2120101552DA7
:1032C00003D0562D01D04F6B70D00001010E0201CA
:1032D0005F6F020E606F00016EEC0CF03C0EF66E3C
:1032E000530EF76EC9EC0CF0010E02015F6F020E77
:1032F000606F00016EEC0CF0440EF66E530EF76E2C
:10330000C9EC0CF0020E0201516FFA0E5F6F000162
:103310009AEC06F00201512FF8D7010E5F6F020EF2
:10332000606F00016EEC0CF04A0EF66E530EF76EF5
:10333000C9EC0CF00A0E02015F6F020E606F000113
:103340006EEC0CF0520EF66E530EF76EC9EC0CF0EC
:103350000A0E02015F6F020E606F00016EEC0CF04E
:103360005A0EF66E530EF76EC9EC0CF0020E020107
:10337000516FFA0E5F6F00019AEC06F00201512FB7
:10338000F8D70A0E5F6F020E606F00016EEC0CF052
:10339000600EF66E530EF76EC9EC0CF00101556B22
:1033A000566B5A0E1F6E010E4F6F5A0E1F6E3CEF7A
:1033B00028F001015353D8A492D00C0E02015E6F85
:1033C000000197EC0CF0010E02015F6F606F0001CD
:1033D0006EEC0CF0680EF66E530EF76EC9EC0CF046
:1033E000010E02015F6F020E606F00016EEC0CF0C7
:1033F000D89001015E35036A980FE96E000E032034
:10340000EA6EECCF52F2ED52EFCF51F2780EF66E3B
:10341000530EF76E070E0201556F0001D9EC0CF048
:10342000100EE96E52C254F251C253F243EC0FF047
:103430000A0E02015F6F020E606F00016EEC0CF06D
:10344000250E02015E6F000197EC0CF0010E0201E7
:103450005F6F030E606F00016EEC0CF0D8900101FD
:103460005E35036A9E0FE96E000E0320EA6EECCF14
:1034700052F2ED52EFCF51F2840EF66E530EF76E0C
:10348000070E0201556F0001D9EC0CF0100EE96E29
:1034900052C254F251C253F243EC0FF00A0E020131
:1034A0005F6F030E606F00016EEC0CF0250E0201E1
:1034B0005E6F000197EC0CF0010E02015F6F040ECD
:1034C000606F00016EEC0CF0900EF66E530EF76E0E
:1034D000C9EC0CF0010E0101536F5A0E1F6E090E5C
:1034E000516F1F50410805E1020E516F5A0E1F6EB9
:1034F000536B3CEF28F001015353D8A407D10C0EB5
:1035000002015E6F000197EC0CF0010E02015F6F8B
:10351000606F00016EEC0CF09E0EF66E530EF76EAF
:10352000070E0201556F0001D9EC0CF05EC151F29B
:10353000180E0201526F0001E3EC0EF0010E0201C1
:103540005F6F020E606F00016EEC0CF0D89001010D
:103550005E35036ABC0FE96E000E0320EA6EECCF05
:1035600052F2ED52EFCF51F2D8905E35036AC80F98
:10357000E96E000E0320EA6EECCF54F2ED52EFCF6D
:1035800053F2A80EF66E530EF76E070E0201556F3A
:103590000001D9EC0CF0100EE96E52C256F251C285
:1035A00055F2A1EC0FF03A0E02015E6F000197ECAC
:1035B0000CF0100EE96E54C256F253C255F2A1EC53
:1035C0000FF0010E02015F6F030E606F00016EECE1
:1035D0000CF0D89001015E35036AC20FE96E000E4F
:1035E0000320EA6EECCF52F2ED52EFCF51F2D890B9
:1035F0005E35036ACE0FE96E000E0320EA6EECCF53
:1036000054F2ED52EFCF53F2B80EF66E530EF76E42
:10361000070E0201556F0001D9EC0CF0100EE96E97
:1036200052C256F251C255F2A1EC0FF03A0E02010D
:103630005E6F000197EC0CF0100EE96E54C256F26A
:1036400053C255F2A1EC0FF0010E02015F6F040EA0
:10365000606F00016EEC0CF0C80EF66E530EF76E44
:10366000C9EC0CF0090E02015F6F040E606F0001DF
:103670006EEC0CF0D00EF66E530EF76EC9EC0CF03B
:103680000101556B566B576B586B010E536F5A0EF9
:103690001F6E216A215002080BE3036A2150380F84
:1036A000E96E010E0320EA6E300EEF6E212AF2D78A
:1036B000216A215002080BE3036A21503B0FE96E97
:1036C000010E0320EA6E300EEF6E212AF2D7216A36
:1036D000215002080BE3036A21503E0FE96E010EF0
:1036E0000320EA6E300EEF6E212AF2D7216A2150B4
:1036F00002080BE3036A2150410FE96E010E03201B
:10370000EA6E300EEF6E212AF2D74F6B1F5042083F
:1037100040E1010E4F6F02015F6F020E606F00010A
:103720006EEC0CF0D80EF66E530EF76EC9EC0CF082
:10373000010E02015F6F020E606F00016EEC0CF073
:10374000E60EF66E530EF76EC9EC0CF0010E020198
:103750005F6F030E606F00016EEC0CF0F40EF66EFE
:10376000530EF76EC9EC0CF0010E02015F6F030EF1
:10377000606F00016EEC0CF0020EF66E540EF76EE8
:10378000C9EC0CF00101556B566B576B586B5A0E18
:103790001F6E4F2DE5D01F505A0833E055510108D8
:1037A00030E31F5041082DE01F5042082AE01F500F
:1037B000430827E01F50440824E01F50450821E03B
:1037C0001F5046081EE0036A5551380FE96E010E7E
:1037D0000320EA6E1FC0EFFF080E55250201516F4E
:1037E0005F6F020E606F00016EEC0CF01FC05EF2A6
:1037F00097EC0CF00101552B5A0E1F6E552D01D080
:103800003A6B1F505A0833E05651010830E31F50FD
:1038100041082DE01F5042082AE01F50430827E0CE
:103820001F50440824E01F50450821E01F5046085F
:103830001EE0036A56513B0FE96E010E0320EA6E4B
:103840001FC0EFFF0B0E56250201516F5F6F020E76
:10385000606F00016EEC0CF01FC05EF297EC0CF094
:103860000101562B5A0E1F6E562D01D03D6B552D62
:1038700009D0562D07D0572D05D0582D03D0592DDE
:1038800001D04F6B010E516F1F505A0833E0575152
:10389000010830E31F5041082DE01F5042082AE084
:1038A0001F50430827E01F50440824E01F504508DC
:1038B00021E01F5046081EE0036A57513E0FE96E93
:1038C000010E0320EA6E1FC0EFFF080E572502010C
:1038D000516F5F6F030E606F00016EEC0CF01FC044
:1038E0005EF297EC0CF00101572B5A0E1F6E572D0C
:1038F00001D0406B1F505A0833E05851010830E3A3
:103900001F5041082DE01F5042082AE01F50430875
:1039100027E01F50440824E01F50450821E01F50B5
:1039200046081EE0036A5851410FE96E010E03205C
:10393000EA6E1FC0EFFF0B0E58250201516F5F6F3B
:10394000030E606F00016EEC0CF01FC05EF297EC8E
:103950000CF00101582B5A0E1F6E582D01D0436BED
:103960000A0E516F516F1F504108D8A4F2D04F2D4D
:1039700029D0010E0201526F380E516F000155EC33
:103980000DF001C047F1010E0201526F3B0E516F65
:10399000000155EC0DF001C048F1010E0201526F1B
:1039A0003E0E516F000155EC0DF001C049F1010EC2
:1039B0000201526F410E516F000155EC0DF001C034
:1039C0004AF10101552D07D0562D05D0572D03D0B2
:1039D000582D01D04F6B475117084AE348513C0816
:1039E00047E34951170844E34A513C0841E3495130
:1039F000475D06E34951475D3BE148514A5D38E385
:103A0000D8905E35036ABC0FE96E000E0320EA6EA3
:103A1000EC6AED5247C1EFFFD8905E35036AC20FE2
:103A2000E96E000E0320EA6EEC6AED5249C1EFFF29
:103A3000D8905E35036AC80FE96E000E0320EA6E67
:103A4000EC6AED5248C1EFFFD8905E35036ACE0FA5
:103A5000E96E000E0320EA6EEC6AED524AC1EFFFF8
:103A60004C6B020E4B6F516F536B5A0E1F6E71D021
:103A7000010E02015F6F020E606F00016EEC0CF030
:103A8000100EF66E540EF76EC9EC0CF0010E02012A
:103A90005F6F020E606F00016EEC0CF0180EF66E98
:103AA000540EF76EC9EC0CF0020E0201516FFA0EC3
:103AB0005F6F00019AEC06F00201512FF8D7010E5A
:103AC0005F6F020E606F00016EEC0CF01E0EF66E62
:103AD000540EF76EC9EC0CF0010E02015F6F030E7D
:103AE000606F00016EEC0CF02C0EF66E540EF76E4B
:103AF000C9EC0CF0010E02015F6F030E606F000154
:103B00006EEC0CF0340EF66E540EF76EC9EC0CF041
:103B1000020E0201516FFA0E5F6F00019AEC06F07F
:103B20000201512FF8D7010E5F6F030E606F000185
:103B30006EEC0CF03A0EF66E540EF76EC9EC0CF00B
:103B40000101556B566B576B586B5A0E1F6E010E69
:103B50004F6F5A0E1F6E3CEF28F00101535344E1A2
:103B60000C0E02015E6F000197EC0CF0010E0201D9
:103B70005F6F606F00016EEC0CF0480EF66E540E35
:103B8000F76EC9EC0CF0010E02015F6F020E606F60
:103B900000016EEC0CF05A0EF66E540EF76EC9EC86
:103BA0000CF0010E02015F6F040E606F00016EECFD
:103BB0000CF0640EF66E540EF76EC9EC0CF00101B9
:103BC000556B010E536F5A0E1F6E216A2150020869
:103BD0000BE3036A2150380FE96E010E0320EA6EF1
:103BE000300EEF6E212AF2D71F505A082FE055539E
:103BF0002DE11F5041082AE01F50420827E01F50C6
:103C0000430824E01F50440821E01F5045081EE0EF
:103C10001F5046081BE0036A5551380FE96E010E2C
:103C20000320EA6E1FC0EFFF080E02015F6F020E55
:103C3000606F00016EEC0CF01FC05EF297EC0CF0B0
:103C40000101396B010E556F5A0E1F6E0B0E516F2D
:103C50001F504108D8A471D0010E0201526F380ED6
:103C6000516F000155EC0DF001C052F1010E02013F
:103C70005F6F606F00016EEC0CF0010152510008A3
:103C800016E25251545D13E3A651A45D03E0525174
:103C9000020806E1A651A55D0AE0522D01D007D029
:103CA00052C15EF10C0E516F536B556B46D0010E35
:103CB00002015F6F020E606F00016EEC0CF06E0E81
:103CC000F66E540EF76EC9EC0CF0010E02015F6F38
:103CD000020E606F00016EEC0CF0780EF66E540E62
:103CE000F76EC9EC0CF0020E0201516FFA0E5F6F15
:103CF00000019AEC06F00201512FF8D7010E5F6F18
:103D0000020E606F00016EEC0CF07E0EF66E540E2B
:103D1000F76EC9EC0CF0010E02015F6F020E606FCE
:103D200000016EEC0CF0840EF66E540EF76EC9ECCA
:103D30000CF00101556B050E526F5A0E1F6E3CEFD1
:103D400028F001015353D8A496D00C0E02015E6FE7
:103D5000000197EC0CF0010E02015F6F606F000133
:103D60006EEC0CF08E0EF66E540EF76EC9EC0CF085
:103D7000010E02015F6F040E606F00016EEC0CF02B
:103D8000A00EF66E540EF76EC9EC0CF0010E020197
:103D90005F6F020E606F00016EEC0CF0AC0EF66E01
:103DA000540EF76EC9EC0CF0090E02015F6F020EA3
:103DB000606F00016EEC0CF0B00EF66E540EF76EF4
:103DC000C9EC0CF0010E02015F6F030E606F000181
:103DD0006EEC0CF0B40EF66E540EF76EC9EC0CF0EF
:103DE000090E02015F6F030E606F00016EEC0CF0B4
:103DF000B80EF66E540EF76EC9EC0CF0060E02010A
:103E00005F6F020E606F00016EEC0CF0BC0EF66E80
:103E1000540EF76EC9EC0CF00E0E02015F6F020E2D
:103E2000606F00016EEC0CF0BE0EF66E540EF76E75
:103E3000C9EC0CF0060E02015F6F030E606F00010B
:103E40006EEC0CF0C00EF66E540EF76EC9EC0CF072
:103E50000E0E02015F6F030E606F00016EEC0CF03E
:103E6000C20EF66E540EF76EC9EC0CF0020E010194
:103E7000536F5A0E1F6E040E02015F6F020E606FC9
:103E800000016EEC0CF0C40EF66E540EF76EC9EC29
:103E90000CF0040E02015F6F020E606F00016EEC09
:103EA0000CF0D89001015E35036A800FE96E000EB8
:103EB0000320EA6EECCF52F2ED52EFCF51F2020145
:103EC00051530BE1525309E1C80EF66E540EF76ED2
:103ED0000001C9EC0CF02BD00201D89001015E3535
:103EE000036A800FE96E000E0320EA6EECCF52F2F7
:103EF000ED52EFCF51F2010E0201515F000E525B05
:103F0000030EE96E52C254F251C253F2000143EC67
:103F10000FF0060E02015F6F020E606F00016EEC83
:103F20000CF0CC0EF66E540EF76EC9EC0CF00C0EC5
:103F300002015F6F020E606F00016EEC0CF0CE0E9E
:103F4000F66E540EF76EC9EC0CF00C0E02015F6FAA
:103F5000020E606F00016EEC0CF0D89001015E352E
:103F6000036A860FE96E000E0320EA6EECCF52F270
:103F7000ED52EFCF51F2020151530BE1525309E1DF
:103F8000D20EF66E540EF76E0001C9EC0CF02BD079
:103F90000201D89001015E35036A860FE96E000EBA
:103FA0000320EA6EECCF52F2ED52EFCF51F2010E48
:103FB0000201515F000E525B030EE96E52C254F2D1
:103FC00051C253F2000143EC0FF00E0E02015F6F7D
:103FD000020E606F00016EEC0CF0D60EF66E540E01
:103FE000F76EC9EC0CF0040E02015F6F030E606FF8
:103FF00000016EEC0CF0D80EF66E540EF76EC9ECA4
:104000000CF0040E02015F6F030E606F00016EEC96
:104010000CF0D89001015E35036A8C0FE96E000E3A
:104020000320EA6EECCF52F2ED52EFCF51F20201D3
:1040300051530BE1525309E1DC0EF66E540EF76E4C
:104040000001C9EC0CF02BD00201D89001015E35C3
:10405000036A8C0FE96E000E0320EA6EECCF52F279
:10406000ED52EFCF51F2010E0201515F000E525B93
:10407000030EE96E52C254F251C253F2000143ECF6
:104080000FF0060E02015F6F030E606F00016EEC11
:104090000CF0E00EF66E540EF76EC9EC0CF00C0E40
:1040A00002015F6F030E606F00016EEC0CF0E20E18
:1040B000F66E540EF76EC9EC0CF00C0E02015F6F39
:1040C000030E606F00016EEC0CF0D89001015E35BC
:1040D000036A920FE96E000E0320EA6EECCF52F2F3
:1040E000ED52EFCF51F2020151530BE1525309E16E
:1040F000E60EF66E540EF76E0001C9EC0CF02ED0F1
:104100000201D89001015E35036A920FE96E000E3C
:104110000320EA6EECCF52F2ED52EFCF51F2010ED6
:104120000201515F000E525B030EE96E52C254F25F
:1041300051C253F2000143EC0FF00C0E0101516F1C
:104140000E0E02015F6F030E606F00016EEC0CF04B
:10415000EA0EF66E540EF76EC9EC0CF01F504108D3
:1041600006E1030E0101516F5A0E1F6E536B0101E0
:104170004C6B030E4B6F3CEF28F00101535362E18F
:104180000C0E02015E6F000197EC0CF0010E0201B3
:104190005F6F606F00016EEC0CF0EC0EF66E540E6B
:1041A000F76EC9EC0CF0010E02015F6F020E606F3A
:1041B00000016EEC0CF0FE0EF66E540EF76EC9ECBC
:1041C0000CF0010E02015F6F030E606F00016EECD8
:1041D0000CF0080EF66E550EF76EC9EC0CF0010EE1
:1041E00002015F6F040E606F00016EEC0CF0160EA2
:1041F000F66E550EF76EC9EC0CF00101556B566B5F
:10420000010E536F5A0E1F6E216A215002080BE3F4
:10421000036A2150380FE96E010E0320EA6E300E5A
:10422000EF6E212AF2D7216A215002080BE3036ABC
:1042300021503B0FE96E010E0320EA6E300EEF6E47
:10424000212AF2D71F505A082FE055532DE11F5055
:1042500041082AE01F50420827E01F50430824E08D
:104260001F50440821E01F5045081EE01F5046081B
:104270001BE0036A5551380FE96E010E0320EA6E08
:104280001FC0EFFF080E02015F6F020E606F00019A
:104290006EEC0CF01FC05EF297EC0CF00101396B74
:1042A000010E556F5A0E1F6E1F505A082FE05653BD
:1042B0002DE11F5041082AE01F50420827E01F50FF
:1042C000430824E01F50440821E01F5045081EE029
:1042D0001F5046081BE0036A56513B0FE96E010E62
:1042E0000320EA6E1FC0EFFF0D0E02015F6F030E89
:1042F000606F00016EEC0CF01FC05EF297EC0CF0EA
:1043000001013C6B010E566F5A0E1F6E0D0E516F60
:104310001F504108D8A461D25A0E1F6E010E02012F
:10432000526F380E516F000155EC0DF001C05CF179
:10433000010E0201526F3B0E516F000155EC0DF062
:1043400001C05DF101015C510008D8B0BCD15C51E5
:10435000545DD8A0B8D15D515B5DD8A0B4D1A65151
:10436000A45D03E05C51020807E1A651A55DD8B445
:10437000AAD15C2D01D0A7D1D8905C35036AB60FC5
:10438000016E000E0322020103C052F2D890010117
:104390005C35036AB00FE96E000E0320EA6EECCFC5
:1043A00003F0ED52EFCF53F2020152C2EAFF01C017
:1043B000E9FF03C0ECFFED5253C2EFFFD8900101BB
:1043C0005C35036AB00FE96E000E0320EA6EECCF95
:1043D00052F2ED52EFCF51F202015151150808E1AE
:1043E000525306E101015D510208D8B427D1020100
:1043F000D89001015C35036AB00FE96E000E03200E
:10440000EA6EECCF52F2ED52EFCF51F20201515170
:1044100016080AE1525308E101015D2D01D002D0D6
:10442000020102D00BD10201D89001015C35036A70
:10443000B00FE96E000E0320EA6EECCF52F2ED529F
:10444000EFCF51F202015151160808E1525306E133
:1044500001015D510208D8B4F1D00201D8900101E8
:104460005C35036AB00FE96E000E0320EA6EECCFF4
:1044700052F2ED52EFCF51F20201515116080AE10A
:10448000525308E101015D2D01D002D0020102D09A
:10449000D5D00201D89001015C35036AB00FE96EF6
:1044A000000E0320EA6EECCF52F2ED52EFCF51F244
:1044B00002015151170808E1525306E101015D5113
:1044C0000208D8B4BBD00201D89001015C35036A60
:1044D000B00FE96E000E0320EA6EECCF52F2ED52FF
:1044E000EFCF51F20201515117080AE1525308E18E
:1044F00001015D2D01D002D0020102D09FD0020146
:10450000D89001015C35036AB00FE96E000E0320FC
:10451000EA6EECCF52F2ED52EFCF51F2020151515F
:104520000B0808E1525306E101015D510208D8B4BD
:1045300085D00201D89001015C35036AB00FE96EA5
:10454000000E0320EA6EECCF52F2ED52EFCF51F2A3
:10455000020151510C080AE1525308E101015D2D9D
:1045600001D002D0020102D069D00201D89001012D
:104570005C35036AB00FE96E000E0320EA6EECCFE3
:1045800052F2ED52EFCF51F2020151510C0807E106
:10459000525305E101015D51020850E00201D8903B
:1045A00001015C35036AB00FE96E000E0320EA6E6C
:1045B000ECCF52F2ED52EFCF51F2020151510C0803
:1045C0000AE1525308E101015D2D01D002D0020140
:1045D00002D034D00201D89001015C35036AB00FDB
:1045E000E96E000E0320EA6EECCF52F2ED52EFCFEF
:1045F00051F2020151510D0807E1525305E1010149
:104600005D5102081BE00201D89001015C35036A8C
:10461000B00FE96E000E0320EA6EECCF52F2ED52BD
:10462000EFCF51F2020151510D0826E1525324E11E
:1046300001015D2D01D002D002011ED05C2D0CD0F5
:10464000D8905C35036AB00FE96E000E0320EA6E65
:10465000EC6AED520D0EEF6E5C5102080CE1D89041
:104660005C35036AB00FE96E000E0320EA6EEC6A57
:10467000ED52170EEF6E1ED001015D530DE1D89083
:104680005C35036AB00FE96E000E0320EA6EEC6A37
:10469000ED522C0EEF6E0ED0D8905C35036AB00F41
:1046A000E96E000E0320EA6E5C510A0DF3505D25A1
:1046B000EF6EEC6A0E0E516F536B566B556B4C6B75
:1046C000040E4B6F8AD0080E02015F6F020E606FFE
:1046D00000016EEC0CF0240EF66E550EF76EC9EC70
:1046E0000CF0080E02015F6F020E606F00016EECAD
:1046F0000CF02E0EF66E550EF76EC9EC0CF0020E95
:104700000201516FFA0E5F6F00019AEC06F0020190
:10471000512FF8D7080E5F6F020E606F00016EEC2C
:104720000CF0340EF66E550EF76EC9EC0CF0010E5F
:1047300002015F6F020E606F00016EEC0CF03A0E2A
:10474000F66E550EF76EC9EC0CF00D0E02015F6FA0
:10475000030E606F00016EEC0CF0440EF66E550E09
:10476000F76EC9EC0CF00C0E02015F6F030E606F68
:1047700000016EEC0CF04E0EF66E550EF76EC9ECA5
:104780000CF0020E0201516FFA0E5F6F00019AECFD
:1047900006F00201512FF8D70C0E5F6F030E606F09
:1047A00000016EEC0CF0540EF66E550EF76EC9EC6F
:1047B0000CF0010E02015F6F030E606F00016EECE2
:1047C0000CF05A0EF66E550EF76EC9EC0CF00101A6
:1047D000556B050E5C6F566B5D6F3CEF28F0010169
:1047E000535340E10C0E02015E6F000197EC0CF098
:1047F000010E02015F6F606F00016EEC0CF0680E3D
:10480000F66E550EF76EC9EC0CF0010E02015F6FEB
:10481000020E606F00016EEC0CF07A0EF66E550E13
:10482000F76EC9EC0CF0010E02015F6F030E606FB2
:1048300000016EEC0CF0820EF66E550EF76EC9ECB0
:104840000CF0010E02015F6F040E606F00016EEC50
:104850000CF0880EF66E550EF76EC9EC0CF0010EDA
:104860000101536FD8905C35036AB00FE96E000EFA
:104870000320EA6EECCF52F2ED52EFCF51F202017B
:10488000515325E1525323E101015C2D01D002D0A7
:1048900002011DD0080E02015F6F020E606F000161
:1048A0006EEC0CF0960EF66E550EF76EC9EC0CF031
:1048B000060E02015F6F030E606F00016EEC0CF0DC
:1048C000A00EF66E550EF76EC9EC0CF00201D890F2
:1048D00001015C35036AB00FE96E000E0320EA6E39
:1048E000ECCF52F2ED52EFCF51F2020151510B08D1
:1048F0001EE152531CE1080E5F6F020E606F000153
:104900006EEC0CF0AC0EF66E550EF76EC9EC0CF0BA
:10491000060E02015F6F030E606F00016EEC0CF07B
:10492000B40EF66E550EF76EC9EC0CF00201D8907D
:1049300001015C35036AB00FE96E000E0320EA6ED8
:10494000ECCF52F2ED52EFCF51F2020151510C086F
:104950001EE152531CE1080E5F6F020E606F0001F2
:104960006EEC0CF0BC0EF66E550EF76EC9EC0CF04A
:10497000060E02015F6F030E606F00016EEC0CF01B
:10498000C40EF66E550EF76EC9EC0CF00201D8900D
:1049900001015C35036AB00FE96E000E0320EA6E78
:1049A000ECCF52F2ED52EFCF51F2020151510D080E
:1049B0001EE152531CE1080E5F6F020E606F000192
:1049C0006EEC0CF0CC0EF66E550EF76EC9EC0CF0DA
:1049D000060E02015F6F030E606F00016EEC0CF0BB
:1049E000D40EF66E550EF76EC9EC0CF00201D8909D
:1049F00001015C35036AB00FE96E000E0320EA6E18
:104A0000ECCF52F2ED52EFCF51F2020151512C088E
:104A10001EE152531CE1080E5F6F020E606F000131
:104A20006EEC0CF0DE0EF66E550EF76EC9EC0CF067
:104A3000060E02015F6F030E606F00016EEC0CF05A
:104A4000E80EF66E550EF76EC9EC0CF00201D89028
:104A500001015C35036AB00FE96E000E0320EA6EB7
:104A6000ECCF52F2ED52EFCF51F20201515326E159
:104A7000525324E101015C510208D8B402D0020172
:104A80001DD0080E02015F6F020E606F00016EEC18
:104A90000CF0F40EF66E550EF76EC9EC0CF0060E27
:104AA00002015F6F030E606F00016EEC0CF0FE0EF2
:104AB000F66E550EF76EC9EC0CF00201D8900101AC
:104AC0005C35036AB00FE96E000E0320EA6EECCF8E
:104AD00052F2ED52EFCF51F20201515115081EE191
:104AE00052531CE1080E5F6F020E606F00016EEC06
:104AF0000CF00A0EF66E560EF76EC9EC0CF0060EB0
:104B000002015F6F030E606F00016EEC0CF0120E7D
:104B1000F66E560EF76EC9EC0CF00201D89001014A
:104B20005C35036AB00FE96E000E0320EA6EECCF2D
:104B300052F2ED52EFCF51F20201515116081EE12F
:104B400052531CE1080E5F6F020E606F00016EECA5
:104B50000CF01A0EF66E560EF76EC9EC0CF0060E3F
:104B600002015F6F030E606F00016EEC0CF0220E0D
:104B7000F66E560EF76EC9EC0CF00201D8900101EA
:104B80005C35036AB00FE96E000E0320EA6EECCFCD
:104B900052F2ED52EFCF51F20201515117081EE1CE
:104BA00052531CE1080E5F6F020E606F00016EEC45
:104BB0000CF02A0EF66E560EF76EC9EC0CF0060ECF
:104BC00002015F6F030E606F00016EEC0CF0320E9D
:104BD000F66E560EF76EC9EC0CF00201D89001018A
:104BE0005C35036AB00FE96E000E0320EA6EECCF6D
:104BF00052F2ED52EFCF51F2020151512C081EE159
:104C000052531CE1080E5F6F020E606F00016EECE4
:104C10000CF03C0EF66E560EF76EC9EC0CF0060E5C
:104C200002015F6F030E606F00016EEC0CF0460E28
:104C3000F66E560EF76EC9EC0CF002011F504108DB
:104C400007E10F0E0101516F5A0E1F6E536B0201E7
:104C50001F50420806E10D0E0101516F5A0E1F6EE2
:104C6000536B010109D20101535340E10C0E0201C3
:104C70005E6F000197EC0CF0010E02015F6F606F38
:104C800000016EEC0CF0520EF66E560EF76EC9EC8B
:104C90000CF0010E02015F6F020E606F00016EECFE
:104CA0000CF0640EF66E560EF76EC9EC0CF0010EA9
:104CB00002015F6F030E606F00016EEC0CF0740E6A
:104CC000F66E560EF76EC9EC0CF0010E02015F6F26
:104CD000040E606F00016EEC0CF07C0EF66E560E4A
:104CE000F76EC9EC0CF0010E0101536F0F0E516FFE
:104CF0001F50410805E10D0E516F5A0E1F6E536B88
:104D00001F5042080FE1030E516F5A0E1F6E536B76
:104D10000001B36B2E0EB26FB56BB46F01014C6B1B
:104D2000040E4B6FA9D10101535332E10C0E020165
:104D30005E6F000197EC0CF0010E02015F6F606F77
:104D400000016EEC0CF0840EF66E560EF76EC9EC98
:104D50000CF0010E02015F6F020E606F00016EEC3D
:104D60000CF0960EF66E560EF76EC9EC0CF0010EB6
:104D700002015F6F040E606F00016EEC0CF0A60E76
:104D8000F66E560EF76EC9EC0CF0010E0101536F72
:104D90001F50410803E1110E516F536B1F50420821
:104DA00005E1120E516F5A0E1F6E536B65D1010152
:104DB000535340E10C0E02015E6F000197EC0CF0C2
:104DC000010E02015F6F606F00016EEC0CF0B60E19
:104DD000F66E560EF76EC9EC0CF0010E02015F6F15
:104DE000020E606F00016EEC0CF0C80EF66E560EEF
:104DF000F76EC9EC0CF0010E02015F6F030E606FDD
:104E000000016EEC0CF0D80EF66E560EF76EC9EC83
:104E10000CF0010E02015F6F040E606F00016EEC7A
:104E20000CF0E00EF66E560EF76EC9EC0CF0010EAB
:104E30000101536F1F50430860E100019B6B9A6BA7
:104E4000A16BA06B9D6B9C6BA36BA26BA96A9AC0B4
:104E5000A8FFA69CA69EA684F250006EF29E0F01AB
:104E6000550EA76EAA0EA76EA682A6B2FED7A6946E
:104E70000050F212020EA96E9CC0A8FFA69CA69E2E
:104E8000A684F2CF00F0F29E550EA76EAA0EA76E72
:104E9000A682A6B2FED7A6940050F212010EA96E09
:104EA000A0C0A8FFA69CA69EA684F2CF00F0F29E0A
:104EB000550EA76EAA0EA76EA682A6B2FED7A6941E
:104EC0000050F212030EA96EA2C0A8FFA69CA69ED7
:104ED000A684F2CF00F0F29E550EA76EAA0EA76E22
:104EE000A682A6B2FED7A6940050F212130E0101BC
:104EF000516F4C6B010E4B6F536B1F50420805E115
:104F0000040E516F5A0E1F6E536BB6D001015353EE
:104F100040E10C0E02015E6F000197EC0CF0010EF7
:104F200002015F6F606F00016EEC0CF0E80EF66E30
:104F3000560EF76EC9EC0CF0010E02015F6F020E07
:104F4000606F00016EEC0CF0FA0EF66E560EF76E06
:104F5000C9EC0CF0010E02015F6F030E606F0001DF
:104F60006EEC0CF00C0EF66E570EF76EC9EC0CF0F2
:104F7000010E02015F6F040E606F00016EEC0CF019
:104F8000140EF66E570EF76EC9EC0CF0010E01010F
:104F9000536F1F50430818E10001BF6BBE6BC16B1C
:104FA000C06BCB6BCA6BCD6BCC6BC56BC46BC76B6B
:104FB000C66BD16BD06BD36BD26B01014C6B020E05
:104FC0004B6F130E516F536B1F50420805E1040ED7
:104FD000516F5A0E1F6E536B4FD00101535340E176
:104FE0000C0E02015E6F000197EC0CF0010E020145
:104FF0005F6F606F00016EEC0CF01C0EF66E570ECA
:10500000F76EC9EC0CF0010E02015F6F020E606FCB
:1050100000016EEC0CF02E0EF66E570EF76EC9EC1A
:105020000CF0010E02015F6F030E606F00016EEC69
:105030000CF03E0EF66E570EF76EC9EC0CF0010E3A
:1050400002015F6F040E606F00016EEC0CF0460E03
:10505000F66E570EF76EC9EC0CF0010E0101536F9E
:10506000130E516F1F50410805E1040E516F5A0E87
:105070001F6E536B00010101360EBC6F200EBD6F19
:105080008BEF3FF000011200E824F76AF736A30F18
:10509000F66E500EF7220A00F550FA6E0800F55031
:1050A000F96E4A20DE20B4287229482A7450DE2A7C
:1050B000142DC42DB233F6345A3B423D7A41DE47BB
:1050C000664C264DAE4D0C4FDA4F4249454E424597
:1050D0004E49444F5300534953542E2044452052C7
:1050E0004945474F000056657273696F6E20332E35
:1050F0003000554E43410000202A46454348412098
:105100005920484F52412A0053695B46315D2C4E6D
:105110006F5B46325D0020202020202020202020B0
:10512000200046656368613A30257500466563680E
:10513000613A2575000020202020202020202020FA
:105140002000486F72613A3025753A00486F7261ED
:105150003A25753A00002020202020202020202001
:1051600020202020000046656368613A3F3F000030
:105170002F3F3F002F3F3F002020202020202020D5
:1051800020200000486F72613A3F3F3A3F3F0000E5
:105190002020202020202020202000006572726F17
:1051A0007200486F72613A3F3F3A3F3F0000202053
:1051B000202020202020202000006572726F7200C5
:1051C00046656368613A3F3F00002F3F3F002F3F35
:1051D0003F002020202A2A4D454E552A2A202031E2
:1051E0002F33000046313A436F6E6669677572610E
:1051F000000046323A4665636861207920486F7244
:10520000610046333A4D617300002020202A2A4D68
:10521000454E552A2A2020322F33000046313A5677
:1052200065722045737461646F0046323A4D616E59
:1052300075616C20000046333A4D617300002020F8
:10524000202A2A4D454E552A2A2020332F3300008C
:1052500046313A426F727261720046333A4D617361
:105260000000202A434F4E4649475552412A2031DB
:105270002F330000536563746F723A3F0000536927
:105280003A5B46315D004E6F5B46325D0000202088
:1052900020202020202000006572726F72002020E4
:1052A00020202000536563746F723A3F0000202A6B
:1052B000434F4E4649475552412A20322F33000072
:1052C00046313A4C696D2E2048756D656461640005
:1052D00046323A4C696D2E20486F726172696F20B8
:1052E0000000534543544F523A2564004D696E3ACD
:1052F000256C750025004D61783A256C75002500F8
:105300004D6F6469666963613A5B46315D00436F66
:105310006E74696E75613A5B46325D002020202014
:10532000202000004D696E3A3F3F000020202020E1
:10533000202000004D61783A3F3F000020202020CF
:10534000202000006572726F72004D696E3A3F3F17
:10535000000020202020202000006572726F720063
:105360004D61783A3F3F00004C494D495445532028
:1053700048554D45444144004D696E696D613A257B
:105380006C7500004D6178696D613A256C7500009F
:10539000436F6E74696E75613A5B46315D005365AB
:1053A00063746F723A256400496E6963696F3A25C8
:1053B0006C643A256C64000020202046696E3A2512
:1053C0006C643A256C64000053693A5B46315D00B9
:1053D0004E6F3A5B46325D002020202020202020A6
:1053E000202020200000496E6963696F3A3F3F3AF0
:1053F0003F3F0000202020202020202020202020AF
:10540000000020202046696E3A3F3F3A3F3F0000AF
:1054100020202020202000006572726F7200496EEB
:105420006963696F3A3F3F3A3F3F000020202020E8
:10543000202000006572726F720020202046696E85
:105440003A3F3F3A3F3F00002A56455220455354C9
:1054500041444F2A20312F320000536563746F722C
:105460003A3F00005665723A5B46315D00002020ED
:1054700020202020202000006572726F7200202002
:1054800020202000536563746F723A3F00002A5653
:1054900045522045535441444F2A20322F320000B8
:1054A00053616C69723A5B46315D000053313A00DA
:1054B00053323A0053333A0053343A002500250062
:1054C00025002500202020004F46460025002020F2
:1054D00020004F4646002500202020004F46460071
:1054E0002500202020004F464600250020202020B7
:1054F0002A4D414E55414C2A20312F33000053652F
:1055000063746F723A3F000056616C7628303D4FED
:105510004646293A3F00436F6E74696E75613A5B87
:1055200046315D00202020202020202000006572D0
:10553000726F7200202020202000536563746F7208
:105540003A3F00002020202020202020000065720B
:10555000726F720020202020200056616C76283067
:105560003D4F4646293A3F00202A4D414E55414C79
:105570002A2020322F3320200000536563746F727D
:105580003A0056616C763A0053695B46315D2C4EA9
:105590006F5B46325D00554E4F2D3E4F4646000034
:1055A000544F4441532D3E4F46460000554E4F2D1B
:1055B0003E4F4E00554E4F2D3E4F4E00554E4F2DF7
:1055C0003E4F4E00444F532D3E4F4E00554E4F2DF3
:1055D0003E4F4E00544F4441532D3E4F4E00554ECA
:1055E0004F2D3E4F46460000544F4441532D3E4FF1
:1055F00046460000444F532D3E4F46460000544F50
:105600004441532D3E4F46460000444F532D3E4FDC
:105610004E00554E4F2D3E4F4E00444F532D3E4FA2
:105620004E00444F532D3E4F4E00444F532D3E4F9E
:105630004E00544F4441532D3E4F4E00444F532D86
:105640003E4F46460000544F4441532D3E4F464680
:105650000000202A4D414E55414C2A2020332F3343
:1056600020200000436F6E74696E7561204D616E7D
:1056700075616C0053693A5B46315D004E6F3A5B71
:1056800046325D002020202A424F525241522A20A9
:1056900020312F33000046313A4C696D2E20487579
:1056A0006D656461640046323A4C696D2E20546920
:1056B000656D706F00002020202A424F52524152E7
:1056C0002A2020322F3300004C696D2E2048756D42
:1056D000656461643A3F000053693A5B46335D009C
:1056E0004E6F3A5B46325D002020202A424F5252D4
:1056F00041522A2020322F3300004C696D697465B5
:1057000073205469656D706F3A3F000053693A5BCE
:1057100046335D004E6F3A5B46325D002020202A02
:10572000424F525241522A2020332F330000456C01
:10573000207265696E6963696F20667565006578BA
:1057400069746F736F00436F6E74696E7561723A3E
:105750005B46315D0000016A026A006A036A020169
:10576000565102E1555118E0100E576FD89053373B
:105770005437003603365651035C02E15551005C44
:1057800007E35551005ED8A003065651035ED8804A
:1057900001360236572FEAD7000112002350FC0FC2
:1057A000D8B0E5D0040FB9EF2CF0100E0201526F03
:1057B000C150C00B0E09C16EC050C00B0109C06EB4
:1057C000C08EC280C00EF212206A010E236E00014C
:1057D000CED01C6A1B6A000E016EC250C30B0110B2
:1057E000C26E020E02015F6F00019AEC06F01C6AA5
:1057F0001B6A010E0201516F515164081AE3C28203
:10580000C2B2FED7C3501B26C4501C22515164089B
:105810000EE11CC054F21BC053F2566B51C255F23C
:10582000000199DF02C01CF001C01BF00201512BE6
:10583000E3D7100E526F1C5203E11B500A080AE214
:10584000205208E1010E206E030E236E1CC01EF0D4
:105850001BC01DF000018BD0000E016EC250C30BA7
:105860000110C26E020E02015F6F00019AEC06F099
:105870001C6A1B6A010E0201516F515164081AE340
:10588000C282C2B2FED7C3501B26C4501C22515143
:1058900064080EE11CC054F21BC053F2566B51C297
:1058A00055F2000158DF02C01CF001C01BF00201DC
:1058B000512BE3D7202C07D01C5205E11B500908BF
:1058C00002E3020E236E000152D022C052F2020106
:1058D000516B5151525D41E3D8905135036A00013B
:1058E00067EC00F00900F5CF03F00201536F03C02D
:1058F00054F2050E535D006E000E0358036E00C097
:1059000001F003501E5C27E303E11D50015C23E21C
:10591000D8905135036A000167EC00F00900F5CF1B
:1059200003F00201536F03C054F2050E5325016EBC
:10593000000E0320036E1E50035C0DE303E10150D3
:105940001D5C09E251C252F2036A5151000180EC20
:1059500000F01F6E0201512BBCD72250515D02E3B3
:105960005A0E1F6E206A010E236E000100D0CBEF8D
:105970002CF0E824F76AF7368D0FF66E590EF722F1
:105980000A00F550FA6E0800F550F96EAA57D25782
:10599000CA58585803D7C150C00B0F09C16E940E96
:1059A0000101CA6F590ECB6F8BEF3FF0000112005F
:1059B000080E0201566F00C057F29380060E006E6B
:1059C000002EFED7938281A2FED781B0D88081A01D
:1059D000D8900136050E006E002EFED793928A9263
:1059E000562FEBD79380060E006E002EFED78A90BE
:1059F0005751D8A493900000938281A2FED7050E40
:105A0000006E002EFED78A929392060E006E002E34
:105A1000FED78A9093900001120056C257F2D89098
:105A200002015733780E57175731006E00323F0E80
:105A3000001600505725586F56510F0B5825016E10
:105A4000000112000F0E02015F6F00019AEC06F0D8
:105A5000F29CF29EF2BEFDD79380050E006E002EE2
:105A6000FED79382060E006E002EFED78A9093908A
:105A7000050E006E002EFED78A929392D00E020180
:105A8000596F000126EC0EF00201596B000126EC63
:105A90000EF09380050E006E002EFED79382060E48
:105AA000006E002EFED781A2FED78A909390050E3D
:105AB000006E002EFED78A929392D10E0201596F8A
:105AC000000126EC0EF0010E006E72DF01507F0B1C
:105AD0000201516F566F0001A0DF01C079F0010E85
