:04000000DCEF0CF035
:08000800046ED8CF05F0E0CF33
:1000100006F00001E9CF0CF0EACF07F0E1CF08F0DD
:10002000E2CF09F0D9CF0AF0DACF0BF0F3CF12F01C
:10003000F4CF13F0FACF14F000C00EF001C00FF0AF
:1000400002C010F003C011F09DAA2AEF00F09EBA82
:100050006CEF00F00EC000F00FC001F010C002F015
:1000600011C003F00CC0E9FF07C0EAFF078E08C00B
:10007000E1FF09C0E2FF0AC0D9FF0BC0DAFF12C0DE
:10008000F3FF13C0F4FF14C0FAFF045006C0E0FFF2
:1000900005C0D8FF1000F2CF0DF0F29EF76AB00F46
:1000A000F66E000EF7220900F5500DBEF28E12001A
:1000B00030303030303031300000F2CF0DF0F29E71
:1000C000F76AD40FF66E000EF7220900F5500DBE48
:1000D000F28E1200DD00E400840E5524E96E000E5D
:1000E0005620EA6E9EAAFED7AECFEFFF840E5524AF
:1000F000E96E000E5620EA6EEF50260806E1586AB7
:10010000010E576E566A556A05D0586A576A552AC5
:10011000D8B4562A9E9A2AEF00F0010EEA6E0D0E10
:10012000E96EEF500DE0060E016E006A002EFED75C
:10013000012EFBD77B0E006E002EFED7EF2EF3D7DD
:100140001200C150C00B1A09C16EC050C00B070984
:10015000C06EC08EC280C00EF212FBEF09F0030E1B
:100160000101115F0AE3010EEA6E110EE96EEF5014
:1001700004E001D000D0EF2EFDD70001CEEF00F05B
:1001800095968C869EA8FED795968C860101105177
:10019000AD6EACA2FED7116B0001E1D70000ACA29E
:1001A000FED795968C96E9EF00F0280E01010E6FB0
:1001B0000D6B0D510E5D1CE3036A0D51660FE96E68
:1001C000000E0320EA6EEFCF0FF10FC110F1000116
:1001D000D7D7036A01010D51660FE96E000E0320A7
:1001E000EA6EEF502608D8B40DC10EF10D2BE1D701
:1001F000000157EF0AF00101156B136B0A0E146F23
:10020000126B116B106B0F6B0D510E1105E1006A33
:10021000016A026A036A3FD11551152B036A0D2545
:10022000E96E0E510320EA6EEFCF16F116512D083C
:100230000DE1010E136F1551152B036A0D25E96EA3
:100240000E510320EA6EEFCF16F10DD016512B0898
:100250000AE11551152B036A0D25E96E0E51032095
:10026000EA6EEFCF16F116512F08D8B0FCD0165118
:100270003908D8A0F8D01651300821E1036A155189
:100280000D25E96E0E510320EA6EEF5078080AE062
:10029000036A15510D25E96E0E510320EA6EEF50E9
:1002A00058080DE1100E146F152B1551152B036A0C
:1002B0000D25E96E0E510320EA6EEFCF16F11451B1
:1002C0000A0844E116512F0840E2165139083DE36F
:1002D000D8900F35186F1035196F11351A6F123508
:1002E0001B6F0F35006E1035016E1135026E123521
:1002F000036E00360136023603360036013602360A
:100300000336F80E001618510026195101221A5111
:1003100002221B51032203C012F102C011F101C0DD
:1003200010F100C00FF1300E165D0F27000E1023E4
:10033000112312231551152B036A0D25E96E0E5159
:100340000320EA6EEFCF16F1BDD78DD014511008FF
:10035000D8A489D01651600806E216517A0803E342
:100360001651DF0B01D01651166F16512F0803E2FC
:100370001651390807E216514008D8B074D016510A
:10038000460871E316512F082EE2165139082BE367
:100390000F35186F1035196F11351A6F12351B6F25
:1003A000183719371A371B37183719371A371B37C9
:1003B000183719371A371B37F00E1817300E165D1D
:1003C0001825006E000E1921016E000E1A21026E12
:1003D000000E1B21036E126F02C011F101C010F15B
:1003E00000C00FF12AD00F35186F1035196F113575
:1003F0001A6F12351B6F183719371A371B37183712
:1004000019371A371B37183719371A371B37F00EB9
:100410001817410E165D0A0F1825006E000E1921DF
:10042000016E000E1A21026E000E1B21126F02C017
:1004300011F101C010F100C00FF11551152B036A25
:100440000D25E96E0E510320EA6EEFCF16F116511D
:10045000600806E216517A0803E31651DF0B01D05B
:100460001651166F82D714510A080DE1132D0BD0C7
:100470000F1F101F111F121F0F2BD8B4102BD8B431
:10048000112BD8B4122B0FC100F010C101F011C113
:1004900002F012C103F000011200B26B410EB36F03
:1004A000B46BB56B080EB76FB751B35DD8A0E0D190
:1004B000036AB751840FE96E000E0320EA6EEF5015
:1004C000260806E1B42D04D0010EB46FB7C0B3F016
:1004D000036AB751840FE96E000E0320EA6EEF50F5
:1004E0002B0829E0036AB751840FE96E000E032040
:1004F000EA6EEF5026081FE0036AB551A80F016E9F
:10050000000E0322010103C00EF1036A0001B7517E
:10051000840FE96E000E0320EA6EEFCF0FF10101A8
:100520000EC1EAFF01C0E9FF0FC1EFFF010E00019C
:10053000B527B46B9BD1B66BB65102080BE3036AC7
:10054000B651AD0FE96E000E0320EA6E300EEF6E6D
:10055000B62BF2D7B66BB551B65D21E2040ED8804A
:10056000B555B625036AAD0F016E000E032201C01A
:100570000DF1010103C00EF1036A0001B651A80F8D
:10058000E96E000E0320EA6EEFCF0FF10EC1EAFF15
:1005900001C0E9FF0FC1EFFF0001B62BDCD7B56B3F
:1005A000B25310E1B42D01D00DD001010E6BAD0E90
:1005B0000D6F000120DE01C0C8F000C0C7F0010EC1
:1005C000B26FB46FB22D47D0B42D01D044D0C72D37
:1005D0000AD0C85308E101010E6BAD0E0D6F00018A
:1005E0000ADE00C0BAF0C75102080AE1C85308E1A8
:1005F00001010E6BAD0E0D6F0001FDDD00C0BAF004
:10060000C75103080AE1C85308E101010E6BAD0EA2
:100610000D6F0001F0DD00C0BAF0C75104080AE117
:10062000C85308E101010E6BAD0E0D6F0001E3DD53
:1006300000C0BAF0C75108080AE1C85308E1010137
:100640000E6BAD0E0D6F0001D6DD00C0BAF0020ECC
:10065000B26F010EB46FB251020847E1B42D01D060
:1006600044D0C72D0AD0C85308E101010E6BAD0E6E
:100670000D6F0001C0DD00C0BBF0C75102080AE1E8
:10068000C85308E101010E6BAD0E0D6F0001B3DD23
:1006900000C0BBF0C75103080AE1C85308E10101DB
:1006A0000E6BAD0E0D6F0001A6DD00C0BBF0C75193
:1006B00004080AE1C85308E101010E6BAD0E0D6F8D
:1006C000000199DD00C0BBF0C75108080AE1C8531A
:1006D00008E101010E6BAD0E0D6F00018CDD00C055
:1006E000BBF0030EB26F010EB46FB251030837E1D5
:1006F000B42D01D034D0C72D0AD0C85308E1010170
:100700000E6BAD0E0D6F000176DD00C0BCF0C75161
:1007100002080AE1C85308E101010E6BAD0E0D6F2E
:10072000000169DD00C0BEF0C751030802E1C853F3
:1007300000E0C75104080AE1C85308E101010E6B4B
:10074000AD0E0D6F000157DD00C0C6F0C75108089F
:1007500002E1C85300E0040EB26F010EB46FB25153
:1007600004082FE1B42D01D02CD0C72D0AD0C853D6
:1007700008E101010E6BAD0E0D6F00013CDD00C004
:10078000BDF0C75102080AE1C85308E101010E6B30
:10079000AD0E0D6F00012FDD00C0BFF0C751030883
:1007A00002E1C85300E0C751040802E1C85300E069
:1007B000C751080802E1C85300E0050EB26F010EF0
:1007C000B46FB251050827E1B42D01D024D0C72D54
:1007D00002D0C85300E0C75102080AE1C85308E13B
:1007E00001010E6BAD0E0D6F000105DD00C0C0F004
:1007F000C751030802E1C85300E0C751040802E1F1
:10080000C85300E0C751080802E1C85300E0060ED3
:10081000B26F010EB46FB251060828E1B42D01D0B9
:1008200025D0C72D02D0C85300E0C75102080AE105
:10083000C85308E101010E6BAD0E0D6F0001DBDC4A
:1008400000C0C1F0C751030802E1C85300E0C7511E
:10085000040802E1C85300E0C751080802E1C85388
:1008600000E0B26B010EB46FB7C0B3F0B72B1CD66B
:100870005FEF0AF0000E016EC250C30B0110C26E92
:10088000020E01010D6F000148DCC282C2B2FED728
:10089000C3CF16F0C4CF17F0040E016EC250C30BC5
:1008A0000110C26E020E01010D6F000136DCC28222
:1008B000C2B2FED7C3CF18F0C4CF19F0080E016E34
:1008C000C250C30B0110C26E020E01010D6F000178
:1008D00024DCC282C2B2FED7C3CF1AF0C4CF1BF051
:1008E000100E016EC250C30B0110C26E020E010148
:1008F0000D6F000112DCC282C2B2FED7C3CF1CF062
:10090000C4CF1DF07DEF0AF08E0E006E0EC101F017
:100910000DC102F0036A015209E102C001F0026A4E
:10092000080E005E015202E1006A08D0D89001BEB4
:1009300004D0023601360006F9D7019E12000101EB
:100940000D51D8B471D0006E1151D8B46DD00026BD
:1009500004E3810E002668E204D07F0E005E64E3AB
:1009600063E00EC115F11251151B0E8F128F10513D
:100970001403F4CF17F10F511303F4CF03F0F3CFA7
:1009800016F11403F3501727F4501623000E032218
:1009900010511303F3501727F4501623000E026A68
:1009A000032202220E511403F3501627F45003229F
:1009B000000E02220E511303F3500326F4500222BC
:1009C000000E016A012210511203F3501627F45051
:1009D0000322000E022201220F511203F3500326BC
:1009E000F4500222000E01220E511203F35002268F
:1009F000F4500122002A01BE05D016370336023614
:100A000001360006000E16AF0AD0032A0222012288
:100A1000015005E1025003E1035001E1002A15BF36
:100A2000018E15AF019E04D0006A016A026A036A52
:100A30000001120001011151D8B4A5D01D6F15514C
:100A4000D8B4A1D01D5F05E37F0E1D27D8B09BD081
:100A500006D0810E1D5FD8A096D0D8B494D01DC109
:100A600000F0016A026A036A1C6B12C11BF11B8F42
:100A700013C11AF114C119F1190E1D6F1851195F24
:100A80000DE2010E1A5F0AE21B5F08E21C5F06E23C
:100A90001C2B1B2B1A2B1851192728D017511A5F02
:100AA00012E2010E1B5F0FE21C5F0DE21C2B1B2BE1
:100AB00017511A271851192719E31A2B17E11B2B65
:100AC00015E11C2B13D0165180091B5F0EE2010E9D
:100AD0001C5F0BE21C2B165180091B2717511A278C
:100AE000E9E31B2BE7E11C2BE5D703801D2F01D089
:100AF0000BD0D89019371A371B371C37D8900336CC
:100B0000023601361E37BAD71EA106D0D890013260
:100B1000023203321E3302D0000635E01EBF1ED063
:100B2000D89019371A371B371C371851195F07E24D
:100B3000010E1A5F04E21B5F02E21C5F1AE3175109
:100B40001A5F05E2010E1B5F02E21C5F12E3165101
:100B500080091B5F03E2010E1C5F0BE3032A09E11E
:100B6000022A07E1012A05E1002A0DE001320232E2
:100B7000033212C11DF116511D1B1DAF02D0018E93
:100B800006D0019E04D0006A016A026A036A00016D
:100B9000120017C00EF116C00DF1B6DE0101106B88
:100BA0000F6B200E0E6F800E0D6F03C014F102C08C
:100BB00013F101C012F100C011F10001C0DE03C049
:100BC00010F102C00FF101C00EF100C00DF103C021
:100BD00014F102C013F101C012F100C011F10101C2
:100BE000186BC00E176F7F0E166F880E156F000101
:100BF00021DF03C021F002C020F001C01FF000C0BF
:100C00001EF019C00EF118C00DF17EDE0101106B4F
:100C10000F6B200E0E6F800E0D6F03C014F102C01B
:100C200013F101C012F100C011F1000188DE03C010
:100C300010F102C00FF101C00EF100C00DF103C0B0
:100C400014F102C013F101C012F100C011F1010151
:100C5000186BC00E176F7F0E166F880E156F000190
:100C6000E9DE03C025F002C024F001C023F000C07B
:100C700022F01BC00EF11AC00DF146DE0101106B0F
:100C80000F6B200E0E6F800E0D6F03C014F102C0AB
:100C900013F101C012F100C011F1000150DE03C0D8
:100CA00010F102C00FF101C00EF100C00DF103C040
:100CB00014F102C013F101C012F100C011F10101E1
:100CC000186BC00E176F7F0E166F880E156F000120
:100CD000B1DE03C029F002C028F001C027F000C037
:100CE00026F01DC00EF11CC00DF10EDE0101106BCF
:100CF0000F6B200E0E6F800E0D6F03C014F102C03B
:100D000013F101C012F100C011F1000118DE03C09F
:100D100010F102C00FF101C00EF100C00DF103C0CF
:100D200014F102C013F101C012F100C011F1010170
:100D3000186BC00E176F7F0E166F880E156F0001AF
:100D400079DE03C02DF002C02CF001C02BF000C0F2
:100D50002AF07FEF0AF08E0E006E01010D51005E49
:100D60000EC102F00FC101F0028E005209E0D890CE
:100D7000025202E1015204E002320132002EF7D7A2
:100D80000EAF05D0011E021E012AD8B4022A0001AE
:100D9000120021C010F120C00FF11FC00EF11EC0C3
:100DA0000DF10101146B136B480E126F850E116F5C
:100DB0000001C5DD03C010F102C00FF101C00EF14A
:100DC00000C00DF103C014F102C013F101C012F113
:100DD00000C011F1E10E0101186F7A0E176F140EA9
:100DE000166F7E0E156F000125DE03C010F102C0E4
:100DF0000FF101C00EF100C00DF1ADDF01C02EF00A
:100E000025C010F124C00FF123C00EF122C00DF156
:100E10000101146B136B480E126F850E116F0001E8
:100E20008EDD03C010F102C00FF101C00EF100C051
:100E30000DF103C014F102C013F101C012F100C0A2
:100E400011F1E10E0101186F7A0E176F140E166F73
:100E50007E0E156F0001EEDD03C010F102C00FF130
:100E600001C00EF100C00DF176DF01C02FF029C0E6
:100E700010F128C00FF127C00EF126C00DF10101BD
:100E8000146B136B480E126F850E116F000157DD46
:100E900003C010F102C00FF101C00EF100C00DF14E
:100EA00003C014F102C013F101C012F100C011F12E
:100EB000E10E0101186F7A0E176F140E166F7E0E79
:100EC000156F0001B7DD03C010F102C00FF101C0C2
:100ED0000EF100C00DF13FDF01C030F02DC010F168
:100EE0002CC00FF12BC00EF12AC00DF10101146BC3
:100EF000136B480E126F850E116F000120DD03C0C9
:100F000010F102C00FF101C00EF100C00DF103C0DD
:100F100014F102C013F101C012F100C011F1E10E91
:100F20000101186F7A0E176F140E166F7E0E156F73
:100F3000000180DD03C010F102C00FF101C00EF10D
:100F400000C00DF108DF01C031F080EF0AF0DCC015
:100F5000EAFFDBC0E9FF010116C1EFFFE92AD8B4BF
:100F6000EA2AEF6A0001DB2BD8B4DC2B1200EACFAF
:100F700015F1E9CF14F101010E39F009106F1027B6
:100F8000E20F116F320F136F0E510F0B1127112744
:100F90001327E90F126F122712270D390F0B122793
:100FA000132712371337131F13370D510F0B132746
:100FB0001037070E0F6F0A0E12071327FDE31107F4
:100FC0001227FDE310071127FDE30F071027FDE3AC
:100FD000010EEA6E0F0EE96E070E1415149DE92638
:100FE000000EEA22E950130803E1EA2C01D0148D27
:100FF000EF50006E08E114BD06D014B915D014B737
:1010000002D0200E03D014871499300E0026EACFA8
:101010000EF1E9CF0DF100C016F1000198DF0EC10D
:10102000EAFF0DC1E9FF0101EE5014ADDBD700016D
:1010300012000EC112F10DC111F112C103F0010134
:1010400011C1E9FF12C1EAFFEF5206E0112BD8B43B
:10105000122B0001F2D7010110C103F00FC1E9FF0B
:1010600010C1EAFFEF5213E00FC1E9FF10C1EAFF20
:10107000EFCF15F112C1EAFF11C1E9FF15C1EFFF72
:10108000112BD8B4122B0F2BD8B4102BE5D711C1CC
:10109000E9FF12C1EAFFEF6A0DC101F00EC102F0D3
:1010A0000001120001011051016A0F5D03E20FC13E
:1010B00000F00CD0006A080E116F0F370036105187
:1010C000005CD8B0006E0136112FF7D70001120076
:1010D00001500DC10FF1640E0101106F0001E2DF3C
:1010E00000C00DF10150300E08E101010EA30FD038
:1010F0000EB70DD00EB9200E04D001010E970E9937
:101100000E81012601C016F1000121DF01010DC190
:101110000FF10A0E106F0001C5DF00C00DF1015084
:10112000300E08E101010EB70AD00EA108D00EB9A9
:10113000200E0001012601C016F109DF0101300E69
:101140000D270DC116F1000102DFCCEF09F0300EC2
:10115000666FEA6A660EE96EF2CF0DF1F29E000E3E
:101160004BEC00F00A000900F550EE6E0009FBE1BF
:1011700001010DBFF28E0001DC6BA20EDB6F100EC1
:10118000E96ECAC00EF1C9C00DF1F1DE01010E6BAE
:10119000660E0D6F106BA20E0F6F00014ADFDC6B45
:1011A000A20EDB6F2B0E0101166F0001D0DE0101D4
:1011B0000E6B660E0D6F106BA20E0F6F000139DF04
:1011C000C92D93D0CA53D8A490D0DC6BA20EDB6F8C
:1011D000100EE96E3AC00EF139C00DF1C8DE010102
:1011E0000E6B660E0D6F106BA20E0F6F000121DFEC
:1011F000DC6BA20EDB6F2B0E0101166F0001A7DE68
:1012000001010E6B660E0D6F106BA20E0F6F0001C9
:1012100010DFDC6BA20EDB6F100EE96E3CC00EF12E
:101220003BC00DF1A4DE01010E6B660E0D6F106B5D
:10123000A20E0F6F0001FDDEDC6BA20EDB6F2B0E2A
:101240000101166F000183DE01010E6B660E0D6F4A
:10125000106BA20E0F6F0001ECDEDC6BA20EDB6FD9
:10126000100EE96E3EC00EF13DC00DF180DE0101B1
:101270000E6B660E0D6F106BA20E0F6F0001D9DEA4
:10128000DC6BA20EDB6F2B0E0101166F00015FDE1F
:1012900001010E6B660E0D6F106BA20E0F6F000139
:1012A000C8DEDC6BA20EDB6F100EE96E40C00EF1E3
:1012B0003FC00DF15CDE01010E6B660E0D6F106B11
:1012C000A20E0F6F0001B5DEDC6BA20EDB6F260EE7
:1012D0000101166F00013BDE01010E6B660E0D6F02
:1012E000106BA20E0F6F0001A4DEC95102086FE15E
:1012F000CA536DE1DC6BA20EDB6F100EE96ECCC041
:101300000EF1CBC00DF133DE01010E6B660E0D6FD9
:10131000106BA20E0F6F00018CDEDC6BA20EDB6F78
:101320002B0E0101166F000112DE01010E6B660E1D
:101330000D6F106BA20E0F6F00017BDEDC6BA20E37
:10134000DB6F100EE96ECEC00EF1CDC00DF10FDED9
:1013500001010E6B660E0D6F106BA20E0F6F000178
:1013600068DEDC6BA20EDB6F2B0E0101166F000135
:10137000EEDD01010E6B660E0D6F106BA20E0F6F8E
:10138000000157DEDC6BA20EDB6FD3C00DF11B0E2C
:1013900001010E6F00019CD601010E6B660E0D6FF0
:1013A000106BA20E0F6F000144DEDC6BA20EDB6F30
:1013B000260E0101166F0001CADD01010E6B660EDB
:1013C0000D6F106BA20E0F6F000133DED46BA9EF0F
:1013D0000AF0B851010A06E0030A65E0010AD8B430
:1013E0008AD0B9D0960E01010D6F00018DEC00F08E
:1013F0006F86A1EF00F0310E846F856F866F876F67
:10140000886F896F8A6F8B6F176A0A0E166E196A5A
:10141000140E186E1B6A1E0E1A6E1D6A280E1C6EA4
:10142000216A206A1F6A1E6A256A246A236A226A60
:10143000296A286A276A266A2D6A2C6A2B6A2A6A10
:10144000426A416A446A436A466A456A486A476A28
:101450004A6A496A4C6A4B6A4E6A4D6A506A4F6AD8
:10146000596A5A6A5B6A5C6A5D6A5E6A5F6A606B47
:10147000616B626B636B646B656B526A516A546A31
:10148000040E536E030EB86FC26BC36BC46BC56B97
:10149000BC6BBD6B3A6A396A3C6A3B6A3E6A3D6A1C
:1014A000406A3F6A58D0586A576AD5EF00F0586AC8
:1014B000576A5750581001E0FAD74DEF02F0C75164
:1014C000030805E1C85303E1CA6B010EC96FC72DBC
:1014D00005D0C85303E1CA6B010EC96FC751080894
:1014E00005E1C85303E1CA6B020EC96F586A576A17
:1014F000030EB86F30D03AEF04F0C9EF05F049D4CD
:101500003A6A2EC039F03C6A2FC03BF03E6A30C0C8
:101510003DF0406A31C03FF0845130081CE18551F4
:10152000300819E18651300816E18751300813E17F
:101530008851300810E1895130080DE18A51310895
:101540000AE18B51300807E1572C05D0585203E1CE
:10155000FED5020EB86FD20EE96F130EEA6F8CEF54
:101560000DF01200395202E13A5214E03B5202E10E
:101570003C5210E03B50392401010D6F3C503A20A1
:101580000E6FD8900E310001D06F01010D310001B6
:10159000CF6F11D0395207E13A5205E13CC0D0F08B
:1015A0003BC0CFF008D03B5206E13C5204E13AC0C8
:1015B000D0F039C0CFF03D5202E13E5214E03F522C
:1015C00002E1405210E03F503D2401010D6F4050B8
:1015D0003E200E6FD8900E310001D26F01010D3107
:1015E0000001D16F11D03D5207E13E5205E140C0EC
:1015F000D2F03FC0D1F008D03F5206E1405204E1A2
:101600003EC0D2F03DC0D1F0D05306E1BC51CF5D19
:1016100003E2010E596E5E6ED05303E1CF51BD5D02
:1016200003E2596A010E626FD05305E1BC51CF5DF0
:1016300002E2000E01D0010EBD5D09E35E2C03D075
:10164000010E596E5E6A622D02D0596A626BD253E6
:1016500006E1BC51D15D03E2010E5A6E5F6ED253BA
:1016600003E1D151BD5D03E25A6A010E636FD253AB
:1016700005E1BC51D15D02E2000E01D0010EBD5D5D
:1016800009E35F2C03D0010E5A6E5F6A632D02D00E
:101690005A6A636BBD51BC5D02E1596A5A6A39529C
:1016A00007E13A5205E13B5203E13C5201E1596A3C
:1016B0003D5207E13E5205E13F5203E1405201E154
:1016C0005A6ABA5117081EE3BB513C081BE3BE51CE
:1016D000170818E3BF513C0815E3C051170812E37F
:1016E000C1513C080FE3BE51BA5D05E1BF51BB5D7E
:1016F00002E1010E5D6EC051BA5D04E1C151BB5DF6
:1017000001E15D6ADBEF0BF001010E51070B006E8A
:101710000E31016E013201321F0E011601501025EB
:10172000E96E000E1121EA6E016A012A002A01D039
:101730000136002EFDD70F5303E00150EF1203D006
:10174000011E0150EF16000112000DC10EF1010E35
:1017500001010F6F0F0E116F890E106F0001D4DFA2
:101760000DC10EF101010F6B0F0E116F920E106F74
:101770000001CADF12000DC10EF101010F6B0F0E47
:10178000116F890E106F0001BFDF0DC10EF1010155
:101790000F6B0F0E116F920E106F0001B5DF12006C
:1017A000B951F90FD8B0E8D0070FC3EF0CF0010E14
:1017B000B96FE2D0D7D6DA515D5C02E0030EB96FA3
:1017C000C651150813E0C651170810E0C651160897
:1017D0000DE0C6512C080AE0C6512D0802E1D7538E
:1017E00005E0C6512E0804E1D72D02D0020EB96FD4
:1017F000D851595C03E1D9515A5C02E0040EB96F2B
:1018000059C0D8F05AC0D9F05DC0DAF0B5D0C65191
:10181000150806E0C651170803E0C651160802E194
:10182000050EB96FC6512C0802E1060EB96FC651FC
:101830002D080CE1D7530AE1BCC0D5F0BDC0D6F0ED
:10184000BC6BBD6B010ED76F060EB96FC6512E086B
:1018500007E1D5C0BCF0D6C0BDF0060EB96FD76B9E
:10186000020ED36FD3C0D4F087D05D2C02D0050E0A
:10187000B96F5D5202E1060EB96F030ED36F7CD0D3
:10188000592C01D002D05A2C02D0050EB96F5952F2
:1018900004E15A5202E1060EB96FD451020803E185
:1018A000020ED36F02D0010ED36F010ED46F64D03D
:1018B000592C01D009D05D2C01D006D0C651150895
:1018C00003E0C651170808E1110E01010D6F000178
:1018D0003CDFCC6B010ECB6F5A2C01D009D05D2CB4
:1018E00001D006D0C651160803E0C651170808E11A
:1018F000120E01010D6F000128DFCE6B010ECD6FBE
:10190000D32D03D0060EB96F02D0010EB96F34D0BB
:10191000592C01D009D05D2C01D006D0C651150834
:1019200003E0C651170806E1C6512C0803E0C65172
:101930002D0807E1110E01010D6F00011CDFCC6BBA
:10194000CB6B5A2C01D009D05D2C01D006D0C651EA
:10195000160803E0C651170806E1C6512C0803E03B
:10196000C6512D0807E1120E01010D6F000103DFC2
:10197000CE6BCD6B010EB96FA00EE26F170EE36F49
:101980008CEF0DF01200F2CF0DF0F29EE824F76A12
:10199000F736AB0FF66E190EF7220A00F550FA6E05
:1019A0000800F5500DBEF28EF96EAE17B4170E1882
:1019B0006A188018B0181019F86AD09E078E95968C
:1019C0008C96B886080EAF6E020EB06EA60EAC6E88
:1019D000900EAB6E566A556A586A576A596A5A6AC7
:1019E0005B6A5C6A5D6A5E6A5F6A606B616B626BB0
:1019F000636B646B656BB26BB36BB46BB56BB66BDF
:101A0000B76B010EB86FB96BBA6BBB6BBC6BBD6BC0
:101A1000BE6BBF6BC06BC16BC66BC86B0A0EC76F6A
:101A2000CA6B010EC96FCC6BCB6BCE6BCD6BD06B21
:101A3000CF6BD26BD16BD36BD46BD56BD66BD76BB3
:101A4000D86BD96BDA6BDC6BDB6BC150C00B0F0949
:101A5000C16E070EB46E326A336A9D8AC00EF212EE
:101A6000110E01010D6F000186DE120E01010D6FD6
:101A7000000181DED190840ED56E100E006E002E16
:101A8000FED70000DD6BDF6B010EDE6FE16BE06BFC
:101A9000A00EE26F170EE36FE46BE66B010EE56FCD
:101AA000E86BE76BD20EE96F130EEA6F386A880EA7
:101AB000D56E9E0ED76E580ED66EF294D8903834EE
:101AC000006E5DEC00F0026E010E00245DEC00F093
:101AD000036E03C0EAFF02C0E9FFEFCF02F0E92A7C
:101AE000EFCF00F0ECCF01F0EC2AEFCF03F002E1F2
:101AF000EC2AED52EC50015C10E10050035C0DE16A
:101B0000ED52EE6AEF6A02BE08D0EC52ECCFFAFF5B
:101B1000ED52EFCFE8FFF96E0001382A020E385C73
:101B2000CDE1386AD650D7CF03F0F2B4C2D7FAD796
:041B3000386803000E
:020000040030CA
:0E00000000CC380E0007A1000FC00FE00F402B
:00000001FF
;PIC18F4550
;CRC=F57D  CREATED="22-abr-15 07:13"
